{
  "_format": "hh-sol-artifact-1",
  "contractName": "AgentValidationRegistry",
  "sourceName": "contracts/AgentValidationRegistry.sol",
  "abi": [
    {
      "inputs": [],
      "stateMutability": "nonpayable",
      "type": "constructor"
    },
    {
      "inputs": [
        {
          "internalType": "address",
          "name": "owner",
          "type": "address"
        }
      ],
      "name": "OwnableInvalidOwner",
      "type": "error"
    },
    {
      "inputs": [
        {
          "internalType": "address",
          "name": "account",
          "type": "address"
        }
      ],
      "name": "OwnableUnauthorizedAccount",
      "type": "error"
    },
    {
      "anonymous": false,
      "inputs": [
        {
          "indexed": true,
          "internalType": "address",
          "name": "previousOwner",
          "type": "address"
        },
        {
          "indexed": true,
          "internalType": "address",
          "name": "newOwner",
          "type": "address"
        }
      ],
      "name": "OwnershipTransferred",
      "type": "event"
    },
    {
      "anonymous": false,
      "inputs": [
        {
          "indexed": true,
          "internalType": "bytes32",
          "name": "agentId",
          "type": "bytes32"
        },
        {
          "indexed": false,
          "internalType": "string",
          "name": "proofURI",
          "type": "string"
        },
        {
          "indexed": false,
          "internalType": "bytes32",
          "name": "strategyHash",
          "type": "bytes32"
        },
        {
          "indexed": false,
          "internalType": "uint256",
          "name": "sharpeRatio",
          "type": "uint256"
        },
        {
          "indexed": false,
          "internalType": "uint256",
          "name": "maxDrawdown",
          "type": "uint256"
        }
      ],
      "name": "ProofSubmitted",
      "type": "event"
    },
    {
      "anonymous": false,
      "inputs": [
        {
          "indexed": true,
          "internalType": "bytes32",
          "name": "agentId",
          "type": "bytes32"
        },
        {
          "indexed": true,
          "internalType": "address",
          "name": "validator",
          "type": "address"
        },
        {
          "indexed": false,
          "internalType": "bool",
          "name": "approved",
          "type": "bool"
        }
      ],
      "name": "ProofValidated",
      "type": "event"
    },
    {
      "anonymous": false,
      "inputs": [
        {
          "indexed": true,
          "internalType": "address",
          "name": "validator",
          "type": "address"
        }
      ],
      "name": "ValidatorAdded",
      "type": "event"
    },
    {
      "anonymous": false,
      "inputs": [
        {
          "indexed": true,
          "internalType": "address",
          "name": "validator",
          "type": "address"
        }
      ],
      "name": "ValidatorRemoved",
      "type": "event"
    },
    {
      "inputs": [],
      "name": "QUORUM",
      "outputs": [
        {
          "internalType": "uint256",
          "name": "",
          "type": "uint256"
        }
      ],
      "stateMutability": "view",
      "type": "function"
    },
    {
      "inputs": [
        {
          "internalType": "address",
          "name": "validator",
          "type": "address"
        }
      ],
      "name": "addValidator",
      "outputs": [],
      "stateMutability": "nonpayable",
      "type": "function"
    },
    {
      "inputs": [
        {
          "internalType": "bytes32",
          "name": "",
          "type": "bytes32"
        },
        {
          "internalType": "address",
          "name": "",
          "type": "address"
        }
      ],
      "name": "hasValidated",
      "outputs": [
        {
          "internalType": "bool",
          "name": "",
          "type": "bool"
        }
      ],
      "stateMutability": "view",
      "type": "function"
    },
    {
      "inputs": [],
      "name": "owner",
      "outputs": [
        {
          "internalType": "address",
          "name": "",
          "type": "address"
        }
      ],
      "stateMutability": "view",
      "type": "function"
    },
    {
      "inputs": [
        {
          "internalType": "bytes32",
          "name": "",
          "type": "bytes32"
        }
      ],
      "name": "proofs",
      "outputs": [
        {
          "internalType": "string",
          "name": "proofURI",
          "type": "string"
        },
        {
          "internalType": "bytes32",
          "name": "strategyHash",
          "type": "bytes32"
        },
        {
          "internalType": "uint256",
          "name": "sharpeRatio",
          "type": "uint256"
        },
        {
          "internalType": "uint256",
          "name": "maxDrawdown",
          "type": "uint256"
        },
        {
          "internalType": "uint256",
          "name": "submittedAt",
          "type": "uint256"
        },
        {
          "internalType": "uint256",
          "name": "validatorApprovals",
          "type": "uint256"
        },
        {
          "internalType": "uint256",
          "name": "validatorRejections",
          "type": "uint256"
        },
        {
          "internalType": "bool",
          "name": "isValidated",
          "type": "bool"
        }
      ],
      "stateMutability": "view",
      "type": "function"
    },
    {
      "inputs": [
        {
          "internalType": "address",
          "name": "validator",
          "type": "address"
        }
      ],
      "name": "removeValidator",
      "outputs": [],
      "stateMutability": "nonpayable",
      "type": "function"
    },
    {
      "inputs": [],
      "name": "renounceOwnership",
      "outputs": [],
      "stateMutability": "nonpayable",
      "type": "function"
    },
    {
      "inputs": [
        {
          "internalType": "bytes32",
          "name": "agentId",
          "type": "bytes32"
        },
        {
          "internalType": "string",
          "name": "strategyProofURI",
          "type": "string"
        },
        {
          "internalType": "bytes32",
          "name": "strategyHash",
          "type": "bytes32"
        },
        {
          "internalType": "uint256",
          "name": "sharpeRatio",
          "type": "uint256"
        },
        {
          "internalType": "uint256",
          "name": "maxDrawdown",
          "type": "uint256"
        }
      ],
      "name": "submitProof",
      "outputs": [],
      "stateMutability": "nonpayable",
      "type": "function"
    },
    {
      "inputs": [
        {
          "internalType": "address",
          "name": "newOwner",
          "type": "address"
        }
      ],
      "name": "transferOwnership",
      "outputs": [],
      "stateMutability": "nonpayable",
      "type": "function"
    },
    {
      "inputs": [
        {
          "internalType": "bytes32",
          "name": "agentId",
          "type": "bytes32"
        },
        {
          "internalType": "bool",
          "name": "approved",
          "type": "bool"
        }
      ],
      "name": "validateProof",
      "outputs": [],
      "stateMutability": "nonpayable",
      "type": "function"
    },
    {
      "inputs": [
        {
          "internalType": "address",
          "name": "",
          "type": "address"
        }
      ],
      "name": "validators",
      "outputs": [
        {
          "internalType": "bool",
          "name": "",
          "type": "bool"
        }
      ],
      "stateMutability": "view",
      "type": "function"
    }
  ],
  "bytecode": "0x608060405234801561001057600080fd5b50338061003757604051631e4fbdf760e01b81526000600482015260240160405180910390fd5b61004081610060565b50336000908152600260205260409020805460ff191660011790556100b0565b600080546001600160a01b038381166001600160a01b0319831681178455604051919092169283917f8be0079c531659141344cd1fd0a4f28419497f9722a3daafe3b4186f6b6457e09190a35050565b610cf8806100bf6000396000f3fe608060405234801561001057600080fd5b50600436106100a95760003560e01c80636d4ff847116100715780636d4ff84714610156578063715018a6146101695780638da5cb5b14610171578063b42603491461018c578063f2fde38b1461019f578063fa52c7d8146101b257600080fd5b80630b549f29146100ae5780632e80d9b6146100f157806340a141ff14610107578063444d95b01461011c5780634d238c8e14610143575b600080fd5b6100dc6100bc366004610908565b600360209081526000928352604080842090915290825290205460ff1681565b60405190151581526020015b60405180910390f35b6100f9600281565b6040519081526020016100e8565b61011a610115366004610934565b6101d5565b005b61012f61012a366004610956565b610285565b6040516100e89897969594939291906109b5565b61011a610151366004610934565b610352565b61011a610164366004610a18565b610405565b61011a6105de565b6000546040516001600160a01b0390911681526020016100e8565b61011a61019a366004610aee565b6105f2565b61011a6101ad366004610934565b610831565b6100dc6101c0366004610934565b60026020526000908152604090205460ff1681565b6101dd61086f565b6001600160a01b03811660009081526002602052604090205460ff1661023c5760405162461bcd60e51b815260206004820152600f60248201526e2737ba1030903b30b634b230ba37b960891b60448201526064015b60405180910390fd5b6001600160a01b038116600081815260026020526040808220805460ff19169055517fe1434e25d6611e0db941968fdc97811c982ac1602e951637d206f5fdda9dd8f19190a250565b6001602052600090815260409020805481906102a090610b23565b80601f01602080910402602001604051908101604052809291908181526020018280546102cc90610b23565b80156103195780601f106102ee57610100808354040283529160200191610319565b820191906000526020600020905b8154815290600101906020018083116102fc57829003601f168201915b50505050600183015460028401546003850154600486015460058701546006880154600790980154969794969395509193909260ff1688565b61035a61086f565b6001600160a01b03811660009081526002602052604090205460ff16156103b95760405162461bcd60e51b815260206004820152601360248201527220b63932b0b23c9030903b30b634b230ba37b960691b6044820152606401610233565b6001600160a01b038116600081815260026020526040808220805460ff19166001179055517fe366c1c0452ed8eec96861e9e54141ebff23c9ec89fe27b996b45f5ec38849879190a250565b600084511161044b5760405162461bcd60e51b8152602060048201526012602482015271141c9bdbd988155492481c995c5d5a5c995960721b6044820152606401610233565b826104915760405162461bcd60e51b815260206004820152601660248201527514dd1c985d1959de481a185cda081c995c5d5a5c995960521b6044820152606401610233565b600085815260016020526040902060040154156104e75760405162461bcd60e51b815260206004820152601460248201527350726f6f6620616c72656164792065786973747360601b6044820152606401610233565b6040805161010081018252858152602080820186905281830185905260608201849052426080830152600060a0830181905260c0830181905260e08301819052888152600190915291909120815181906105419082610bac565b50602082015160018201556040808301516002830155606083015160038301556080830151600483015560a0830151600583015560c0830151600683015560e0909201516007909101805460ff19169115159190911790555185907fb5e8437e485cdbece76e4959111fd7eca46f76440d7843f7ad2e7578536c2640906105cf908790879087908790610c6c565b60405180910390a25050505050565b6105e661086f565b6105f0600061089c565b565b3360009081526002602052604090205460ff166106435760405162461bcd60e51b815260206004820152600f60248201526e2737ba1030903b30b634b230ba37b960891b6044820152606401610233565b6000828152600160205260409020600401546106935760405162461bcd60e51b815260206004820152600f60248201526e141c9bdbd9881b9bdd08199bdd5b99608a1b6044820152606401610233565b600082815260036020908152604080832033845290915290205460ff16156106f15760405162461bcd60e51b8152602060048201526011602482015270105b1c9958591e481d985b1a59185d1959607a1b6044820152606401610233565b60008281526001602052604090206007015460ff16156107475760405162461bcd60e51b8152602060048201526011602482015270105b1c9958591e481d985b1a59185d1959607a1b6044820152606401610233565b60008281526003602090815260408083203384529091529020805460ff1916600117905580156107d157600082815260016020526040812060050180549161078e83610c9b565b90915550506000828152600160205260409020600501546002116107cc576000828152600160208190526040909120600701805460ff191690911790555b6107f4565b60008281526001602052604081206006018054916107ee83610c9b565b91905055505b6040518115158152339083907f6a51e34ade11888216f1cce0771436c2e2e7bc4b8f80d489e4a9b52c3e8c24e49060200160405180910390a35050565b61083961086f565b6001600160a01b03811661086357604051631e4fbdf760e01b815260006004820152602401610233565b61086c8161089c565b50565b6000546001600160a01b031633146105f05760405163118cdaa760e01b8152336004820152602401610233565b600080546001600160a01b038381166001600160a01b0319831681178455604051919092169283917f8be0079c531659141344cd1fd0a4f28419497f9722a3daafe3b4186f6b6457e09190a35050565b80356001600160a01b038116811461090357600080fd5b919050565b6000806040838503121561091b57600080fd5b8235915061092b602084016108ec565b90509250929050565b60006020828403121561094657600080fd5b61094f826108ec565b9392505050565b60006020828403121561096857600080fd5b5035919050565b6000815180845260005b8181101561099557602081850181015186830182015201610979565b506000602082860101526020601f19601f83011685010191505092915050565b60006101008083526109c98184018c61096f565b602084019a909a52505060408101969096526060860194909452608085019290925260a084015260c0830152151560e090910152919050565b634e487b7160e01b600052604160045260246000fd5b600080600080600060a08688031215610a3057600080fd5b85359450602086013567ffffffffffffffff80821115610a4f57600080fd5b818801915088601f830112610a6357600080fd5b813581811115610a7557610a75610a02565b604051601f8201601f19908116603f01168101908382118183101715610a9d57610a9d610a02565b816040528281528b6020848701011115610ab657600080fd5b826020860160208301376000928101602001929092525096999698505050506040850135946060810135946080909101359350915050565b60008060408385031215610b0157600080fd5b8235915060208301358015158114610b1857600080fd5b809150509250929050565b600181811c90821680610b3757607f821691505b602082108103610b5757634e487b7160e01b600052602260045260246000fd5b50919050565b601f821115610ba757600081815260208120601f850160051c81016020861015610b845750805b601f850160051c820191505b81811015610ba357828155600101610b90565b5050505b505050565b815167ffffffffffffffff811115610bc657610bc6610a02565b610bda81610bd48454610b23565b84610b5d565b602080601f831160018114610c0f5760008415610bf75750858301515b600019600386901b1c1916600185901b178555610ba3565b600085815260208120601f198616915b82811015610c3e57888601518255948401946001909101908401610c1f565b5085821015610c5c5787850151600019600388901b60f8161c191681555b5050505050600190811b01905550565b608081526000610c7f608083018761096f565b6020830195909552506040810192909252606090910152919050565b600060018201610cbb57634e487b7160e01b600052601160045260246000fd5b506001019056fea2646970667358221220d1ae539ea2fe0cd24881702c6ec9cd757cd998500040fe770a947644172f1daf64736f6c63430008140033",
  "linkReferences": {},
  "deployedLinkReferences": {}
}