{
  "_format": "hh-sol-artifact-1",
  "contractName": "AgentReputationRegistry",
  "sourceName": "contracts/AgentReputationRegistry.sol",
  "abi": [
    {
      "inputs": [],
      "stateMutability": "nonpayable",
      "type": "constructor"
    },
    {
      "inputs": [
        {
          "internalType": "address",
          "name": "owner",
          "type": "address"
        }
      ],
      "name": "OwnableInvalidOwner",
      "type": "error"
    },
    {
      "inputs": [
        {
          "internalType": "address",
          "name": "account",
          "type": "address"
        }
      ],
      "name": "OwnableUnauthorizedAccount",
      "type": "error"
    },
    {
      "anonymous": false,
      "inputs": [
        {
          "indexed": true,
          "internalType": "bytes32",
          "name": "agentId",
          "type": "bytes32"
        },
        {
          "indexed": true,
          "internalType": "address",
          "name": "reviewer",
          "type": "address"
        },
        {
          "indexed": false,
          "internalType": "uint8",
          "name": "rating",
          "type": "uint8"
        },
        {
          "indexed": false,
          "internalType": "string",
          "name": "comment",
          "type": "string"
        }
      ],
      "name": "FeedbackSubmitted",
      "type": "event"
    },
    {
      "anonymous": false,
      "inputs": [
        {
          "indexed": true,
          "internalType": "address",
          "name": "previousOwner",
          "type": "address"
        },
        {
          "indexed": true,
          "internalType": "address",
          "name": "newOwner",
          "type": "address"
        }
      ],
      "name": "OwnershipTransferred",
      "type": "event"
    },
    {
      "anonymous": false,
      "inputs": [
        {
          "indexed": true,
          "internalType": "bytes32",
          "name": "agentId",
          "type": "bytes32"
        },
        {
          "indexed": false,
          "internalType": "uint256",
          "name": "totalTrades",
          "type": "uint256"
        },
        {
          "indexed": false,
          "internalType": "uint256",
          "name": "successfulTrades",
          "type": "uint256"
        },
        {
          "indexed": false,
          "internalType": "int256",
          "name": "pnlBasisPoints",
          "type": "int256"
        }
      ],
      "name": "PerformanceUpdated",
      "type": "event"
    },
    {
      "inputs": [
        {
          "internalType": "bytes32",
          "name": "agentId",
          "type": "bytes32"
        }
      ],
      "name": "getAverageRating",
      "outputs": [
        {
          "internalType": "uint256",
          "name": "",
          "type": "uint256"
        }
      ],
      "stateMutability": "view",
      "type": "function"
    },
    {
      "inputs": [
        {
          "internalType": "bytes32",
          "name": "agentId",
          "type": "bytes32"
        }
      ],
      "name": "getFeedback",
      "outputs": [
        {
          "components": [
            {
              "internalType": "address",
              "name": "reviewer",
              "type": "address"
            },
            {
              "internalType": "uint8",
              "name": "rating",
              "type": "uint8"
            },
            {
              "internalType": "string",
              "name": "comment",
              "type": "string"
            },
            {
              "internalType": "uint256",
              "name": "timestamp",
              "type": "uint256"
            }
          ],
          "internalType": "struct AgentReputationRegistry.Feedback[]",
          "name": "",
          "type": "tuple[]"
        }
      ],
      "stateMutability": "view",
      "type": "function"
    },
    {
      "inputs": [
        {
          "internalType": "bytes32",
          "name": "agentId",
          "type": "bytes32"
        }
      ],
      "name": "getWinRate",
      "outputs": [
        {
          "internalType": "uint256",
          "name": "",
          "type": "uint256"
        }
      ],
      "stateMutability": "view",
      "type": "function"
    },
    {
      "inputs": [
        {
          "internalType": "bytes32",
          "name": "",
          "type": "bytes32"
        },
        {
          "internalType": "address",
          "name": "",
          "type": "address"
        }
      ],
      "name": "hasReviewed",
      "outputs": [
        {
          "internalType": "bool",
          "name": "",
          "type": "bool"
        }
      ],
      "stateMutability": "view",
      "type": "function"
    },
    {
      "inputs": [],
      "name": "owner",
      "outputs": [
        {
          "internalType": "address",
          "name": "",
          "type": "address"
        }
      ],
      "stateMutability": "view",
      "type": "function"
    },
    {
      "inputs": [],
      "name": "renounceOwnership",
      "outputs": [],
      "stateMutability": "nonpayable",
      "type": "function"
    },
    {
      "inputs": [
        {
          "internalType": "bytes32",
          "name": "",
          "type": "bytes32"
        }
      ],
      "name": "reputations",
      "outputs": [
        {
          "internalType": "uint256",
          "name": "totalTrades",
          "type": "uint256"
        },
        {
          "internalType": "uint256",
          "name": "successfulTrades",
          "type": "uint256"
        },
        {
          "internalType": "int256",
          "name": "pnlBasisPoints",
          "type": "int256"
        },
        {
          "internalType": "uint256",
          "name": "feedbackCount",
          "type": "uint256"
        },
        {
          "internalType": "uint256",
          "name": "totalRating",
          "type": "uint256"
        },
        {
          "internalType": "uint256",
          "name": "lastUpdated",
          "type": "uint256"
        }
      ],
      "stateMutability": "view",
      "type": "function"
    },
    {
      "inputs": [
        {
          "internalType": "bytes32",
          "name": "agentId",
          "type": "bytes32"
        },
        {
          "internalType": "uint8",
          "name": "rating",
          "type": "uint8"
        },
        {
          "internalType": "string",
          "name": "comment",
          "type": "string"
        }
      ],
      "name": "submitFeedback",
      "outputs": [],
      "stateMutability": "nonpayable",
      "type": "function"
    },
    {
      "inputs": [
        {
          "internalType": "address",
          "name": "newOwner",
          "type": "address"
        }
      ],
      "name": "transferOwnership",
      "outputs": [],
      "stateMutability": "nonpayable",
      "type": "function"
    },
    {
      "inputs": [
        {
          "internalType": "bytes32",
          "name": "agentId",
          "type": "bytes32"
        },
        {
          "internalType": "uint256",
          "name": "totalTrades",
          "type": "uint256"
        },
        {
          "internalType": "uint256",
          "name": "successfulTrades",
          "type": "uint256"
        },
        {
          "internalType": "int256",
          "name": "pnlBasisPoints",
          "type": "int256"
        }
      ],
      "name": "updatePerformance",
      "outputs": [],
      "stateMutability": "nonpayable",
      "type": "function"
    }
  ],
  "bytecode": "0x608060405234801561001057600080fd5b50338061003757604051631e4fbdf760e01b81526000600482015260240160405180910390fd5b61004081610046565b50610096565b600080546001600160a01b038381166001600160a01b0319831681178455604051919092169283917f8be0079c531659141344cd1fd0a4f28419497f9722a3daafe3b4186f6b6457e09190a35050565b610c8a806100a56000396000f3fe608060405234801561001057600080fd5b506004361061009e5760003560e01c806387189f521161006657806387189f521461017b5780638da5cb5b1461018e578063a20daec2146101a9578063aab8e0e5146101e7578063f2fde38b146101fa57600080fd5b8063232b0e79146100a35780634ba7197b146100cc578063530310401461013d57806368343e7f1461015e578063715018a614610173575b600080fd5b6100b66100b13660046107ee565b61020d565b6040516100c3919061084d565b60405180910390f35b6101106100da3660046107ee565b60016020819052600091825260409091208054918101546002820154600383015460048401546005909401549293919290919086565b604080519687526020870195909552938501929092526060840152608083015260a082015260c0016100c3565b61015061014b3660046107ee565b610341565b6040519081526020016100c3565b61017161016c3660046108e7565b61038a565b005b6101716104d6565b61017161018936600461092f565b6104ea565b6000546040516001600160a01b0390911681526020016100c3565b6101d76101b7366004610a1e565b600360209081526000928352604080842090915290825290205460ff1681565b60405190151581526020016100c3565b6101506101f53660046107ee565b6106ea565b610171610208366004610a4a565b610733565b606060026000838152602001908152602001600020805480602002602001604051908101604052809291908181526020016000905b82821015610336576000848152602090819020604080516080810182526003860290920180546001600160a01b0381168452600160a01b900460ff16938301939093526001830180549293929184019161029b90610a6c565b80601f01602080910402602001604051908101604052809291908181526020018280546102c790610a6c565b80156103145780601f106102e957610100808354040283529160200191610314565b820191906000526020600020905b8154815290600101906020018083116102f757829003601f168201915b5050505050815260200160028201548152505081526020019060010190610242565b505050509050919050565b600081815260016020526040812060030154810361036157506000919050565b600082815260016020526040902060038101546004909101546103849190610abc565b92915050565b610392610771565b818310156103d85760405162461bcd60e51b815260206004820152600e60248201526d496e76616c69642074726164657360901b60448201526064015b60405180910390fd5b6040518060c0016040528084815260200183815260200182815260200160016000878152602001908152602001600020600301548152602001600160008781526020019081526020016000206004015481526020014281525060016000868152602001908152602001600020600082015181600001556020820151816001015560408201518160020155606082015181600301556080820151816004015560a08201518160050155905050837f678a8e1f3a03c2dedddafac438c2be2d0e9a67609aba379676075d4c293415278484846040516104c8939291909283526020830191909152604082015260600190565b60405180910390a250505050565b6104de610771565b6104e8600061079e565b565b60018260ff1610158015610502575060058260ff1611155b6105435760405162461bcd60e51b8152602060048201526012602482015271526174696e67206d75737420626520312d3560701b60448201526064016103cf565b600083815260036020908152604080832033845290915290205460ff16156105a05760405162461bcd60e51b815260206004820152601060248201526f105b1c9958591e481c995d9a595dd95960821b60448201526064016103cf565b6000838152600260209081526040808320815160808101835233815260ff80881682860190815293820187815242606084015283546001818101865594885295909620825160039096020180549451909116600160a01b026001600160a81b03199094166001600160a01b0395909516949094179290921783559251909282019061062b9082610b2d565b5060609190910151600290910155600083815260016020526040812060030180549161065683610bed565b90915550506000838152600160205260408120600401805460ff8516929061067f908490610c06565b9091555050600083815260036020908152604080832033808552925291829020805460ff19166001179055905184907fca3451066100a6d2f62b56c4f02ede000ed0562476928dd4e10efb0beb7176ea906106dd9086908690610c19565b60405180910390a3505050565b600081815260016020526040812054810361070757506000919050565b6000828152600160208190526040909120805491015461072990612710610c3d565b6103849190610abc565b61073b610771565b6001600160a01b03811661076557604051631e4fbdf760e01b8152600060048201526024016103cf565b61076e8161079e565b50565b6000546001600160a01b031633146104e85760405163118cdaa760e01b81523360048201526024016103cf565b600080546001600160a01b038381166001600160a01b0319831681178455604051919092169283917f8be0079c531659141344cd1fd0a4f28419497f9722a3daafe3b4186f6b6457e09190a35050565b60006020828403121561080057600080fd5b5035919050565b6000815180845260005b8181101561082d57602081850181015186830182015201610811565b506000602082860101526020601f19601f83011685010191505092915050565b60006020808301818452808551808352604092508286019150828160051b87010184880160005b838110156108d957888303603f19018552815180516001600160a01b031684528781015160ff1688850152868101516080888601819052906108b882870182610807565b60609384015196909301959095525094870194925090860190600101610874565b509098975050505050505050565b600080600080608085870312156108fd57600080fd5b5050823594602084013594506040840135936060013592509050565b634e487b7160e01b600052604160045260246000fd5b60008060006060848603121561094457600080fd5b83359250602084013560ff8116811461095c57600080fd5b9150604084013567ffffffffffffffff8082111561097957600080fd5b818601915086601f83011261098d57600080fd5b81358181111561099f5761099f610919565b604051601f8201601f19908116603f011681019083821181831017156109c7576109c7610919565b816040528281528960208487010111156109e057600080fd5b8260208601602083013760006020848301015280955050505050509250925092565b80356001600160a01b0381168114610a1957600080fd5b919050565b60008060408385031215610a3157600080fd5b82359150610a4160208401610a02565b90509250929050565b600060208284031215610a5c57600080fd5b610a6582610a02565b9392505050565b600181811c90821680610a8057607f821691505b602082108103610aa057634e487b7160e01b600052602260045260246000fd5b50919050565b634e487b7160e01b600052601160045260246000fd5b600082610ad957634e487b7160e01b600052601260045260246000fd5b500490565b601f821115610b2857600081815260208120601f850160051c81016020861015610b055750805b601f850160051c820191505b81811015610b2457828155600101610b11565b5050505b505050565b815167ffffffffffffffff811115610b4757610b47610919565b610b5b81610b558454610a6c565b84610ade565b602080601f831160018114610b905760008415610b785750858301515b600019600386901b1c1916600185901b178555610b24565b600085815260208120601f198616915b82811015610bbf57888601518255948401946001909101908401610ba0565b5085821015610bdd5787850151600019600388901b60f8161c191681555b5050505050600190811b01905550565b600060018201610bff57610bff610aa6565b5060010190565b8082018082111561038457610384610aa6565b60ff83168152604060208201526000610c356040830184610807565b949350505050565b808202811582820484141761038457610384610aa656fea2646970667358221220b180ba42c713880db4ad85190150c15d7783e8e67923937879418ac46ea652c164736f6c63430008140033",
  "linkReferences": {},
  "deployedLinkReferences": {}
}