{"abi":[{"type":"constructor","inputs":[],"stateMutability":"nonpayable"},{"type":"function","name":"approve","inputs":[{"name":"to","type":"address","internalType":"address"},{"name":"tokenId","type":"uint256","internalType":"uint256"}],"outputs":[],"stateMutability":"nonpayable"},{"type":"function","name":"balanceOf","inputs":[{"name":"owner","type":"address","internalType":"address"}],"outputs":[{"name":"","type":"uint256","internalType":"uint256"}],"stateMutability":"view"},{"type":"function","name":"getAgentWallet","inputs":[{"name":"agentId","type":"uint256","internalType":"uint256"}],"outputs":[{"name":"","type":"address","internalType":"address"}],"stateMutability":"view"},{"type":"function","name":"getApproved","inputs":[{"name":"tokenId","type":"uint256","internalType":"uint256"}],"outputs":[{"name":"","type":"address","internalType":"address"}],"stateMutability":"view"},{"type":"function","name":"getDomainSeparator","inputs":[],"outputs":[{"name":"","type":"bytes32","internalType":"bytes32"}],"stateMutability":"view"},{"type":"function","name":"getMetadata","inputs":[{"name":"agentId","type":"uint256","internalType":"uint256"},{"name":"key","type":"string","internalType":"string"}],"outputs":[{"name":"","type":"string","internalType":"string"}],"stateMutability":"view"},{"type":"function","name":"getNonce","inputs":[{"name":"agentId","type":"uint256","internalType":"uint256"}],"outputs":[{"name":"","type":"uint256","internalType":"uint256"}],"stateMutability":"view"},{"type":"function","name":"isApprovedForAll","inputs":[{"name":"owner","type":"address","internalType":"address"},{"name":"operator","type":"address","internalType":"address"}],"outputs":[{"name":"","type":"bool","internalType":"bool"}],"stateMutability":"view"},{"type":"function","name":"name","inputs":[],"outputs":[{"name":"","type":"string","internalType":"string"}],"stateMutability":"view"},{"type":"function","name":"owner","inputs":[],"outputs":[{"name":"","type":"address","internalType":"address"}],"stateMutability":"view"},{"type":"function","name":"ownerOf","inputs":[{"name":"tokenId","type":"uint256","internalType":"uint256"}],"outputs":[{"name":"","type":"address","internalType":"address"}],"stateMutability":"view"},{"type":"function","name":"register","inputs":[{"name":"agentURI","type":"string","internalType":"string"}],"outputs":[{"name":"","type":"uint256","internalType":"uint256"}],"stateMutability":"nonpayable"},{"type":"function","name":"renounceOwnership","inputs":[],"outputs":[],"stateMutability":"nonpayable"},{"type":"function","name":"safeTransferFrom","inputs":[{"name":"from","type":"address","internalType":"address"},{"name":"to","type":"address","internalType":"address"},{"name":"tokenId","type":"uint256","internalType":"uint256"}],"outputs":[],"stateMutability":"nonpayable"},{"type":"function","name":"safeTransferFrom","inputs":[{"name":"from","type":"address","internalType":"address"},{"name":"to","type":"address","internalType":"address"},{"name":"tokenId","type":"uint256","internalType":"uint256"},{"name":"data","type":"bytes","internalType":"bytes"}],"outputs":[],"stateMutability":"nonpayable"},{"type":"function","name":"setAgentWallet","inputs":[{"name":"agentId","type":"uint256","internalType":"uint256"},{"name":"newWallet","type":"address","internalType":"address"},{"name":"signature","type":"bytes","internalType":"bytes"}],"outputs":[],"stateMutability":"nonpayable"},{"type":"function","name":"setApprovalForAll","inputs":[{"name":"operator","type":"address","internalType":"address"},{"name":"approved","type":"bool","internalType":"bool"}],"outputs":[],"stateMutability":"nonpayable"},{"type":"function","name":"setMetadata","inputs":[{"name":"agentId","type":"uint256","internalType":"uint256"},{"name":"key","type":"string","internalType":"string"},{"name":"value","type":"string","internalType":"string"}],"outputs":[],"stateMutability":"nonpayable"},{"type":"function","name":"supportsInterface","inputs":[{"name":"interfaceId","type":"bytes4","internalType":"bytes4"}],"outputs":[{"name":"","type":"bool","internalType":"bool"}],"stateMutability":"view"},{"type":"function","name":"symbol","inputs":[],"outputs":[{"name":"","type":"string","internalType":"string"}],"stateMutability":"view"},{"type":"function","name":"tokenURI","inputs":[{"name":"tokenId","type":"uint256","internalType":"uint256"}],"outputs":[{"name":"","type":"string","internalType":"string"}],"stateMutability":"view"},{"type":"function","name":"transferFrom","inputs":[{"name":"from","type":"address","internalType":"address"},{"name":"to","type":"address","internalType":"address"},{"name":"tokenId","type":"uint256","internalType":"uint256"}],"outputs":[],"stateMutability":"nonpayable"},{"type":"function","name":"transferOwnership","inputs":[{"name":"newOwner","type":"address","internalType":"address"}],"outputs":[],"stateMutability":"nonpayable"},{"type":"event","name":"AgentMetadataUpdated","inputs":[{"name":"agentId","type":"uint256","indexed":true,"internalType":"uint256"},{"name":"key","type":"string","indexed":false,"internalType":"string"},{"name":"value","type":"string","indexed":false,"internalType":"string"}],"anonymous":false},{"type":"event","name":"AgentRegistered","inputs":[{"name":"agentId","type":"uint256","indexed":true,"internalType":"uint256"},{"name":"owner","type":"address","indexed":true,"internalType":"address"},{"name":"agentURI","type":"string","indexed":false,"internalType":"string"}],"anonymous":false},{"type":"event","name":"AgentWalletChanged","inputs":[{"name":"agentId","type":"uint256","indexed":true,"internalType":"uint256"},{"name":"oldWallet","type":"address","indexed":true,"internalType":"address"},{"name":"newWallet","type":"address","indexed":true,"internalType":"address"}],"anonymous":false},{"type":"event","name":"Approval","inputs":[{"name":"owner","type":"address","indexed":true,"internalType":"address"},{"name":"approved","type":"address","indexed":true,"internalType":"address"},{"name":"tokenId","type":"uint256","indexed":true,"internalType":"uint256"}],"anonymous":false},{"type":"event","name":"ApprovalForAll","inputs":[{"name":"owner","type":"address","indexed":true,"internalType":"address"},{"name":"operator","type":"address","indexed":true,"internalType":"address"},{"name":"approved","type":"bool","indexed":false,"internalType":"bool"}],"anonymous":false},{"type":"event","name":"BatchMetadataUpdate","inputs":[{"name":"_fromTokenId","type":"uint256","indexed":false,"internalType":"uint256"},{"name":"_toTokenId","type":"uint256","indexed":false,"internalType":"uint256"}],"anonymous":false},{"type":"event","name":"MetadataUpdate","inputs":[{"name":"_tokenId","type":"uint256","indexed":false,"internalType":"uint256"}],"anonymous":false},{"type":"event","name":"OwnershipTransferred","inputs":[{"name":"previousOwner","type":"address","indexed":true,"internalType":"address"},{"name":"newOwner","type":"address","indexed":true,"internalType":"address"}],"anonymous":false},{"type":"event","name":"Transfer","inputs":[{"name":"from","type":"address","indexed":true,"internalType":"address"},{"name":"to","type":"address","indexed":true,"internalType":"address"},{"name":"tokenId","type":"uint256","indexed":true,"internalType":"uint256"}],"anonymous":false},{"type":"error","name":"ECDSAInvalidSignature","inputs":[]},{"type":"error","name":"ECDSAInvalidSignatureLength","inputs":[{"name":"length","type":"uint256","internalType":"uint256"}]},{"type":"error","name":"ECDSAInvalidSignatureS","inputs":[{"name":"s","type":"bytes32","internalType":"bytes32"}]},{"type":"error","name":"ERC721IncorrectOwner","inputs":[{"name":"sender","type":"address","internalType":"address"},{"name":"tokenId","type":"uint256","internalType":"uint256"},{"name":"owner","type":"address","internalType":"address"}]},{"type":"error","name":"ERC721InsufficientApproval","inputs":[{"name":"operator","type":"address","internalType":"address"},{"name":"tokenId","type":"uint256","internalType":"uint256"}]},{"type":"error","name":"ERC721InvalidApprover","inputs":[{"name":"approver","type":"address","internalType":"address"}]},{"type":"error","name":"ERC721InvalidOperator","inputs":[{"name":"operator","type":"address","internalType":"address"}]},{"type":"error","name":"ERC721InvalidOwner","inputs":[{"name":"owner","type":"address","internalType":"address"}]},{"type":"error","name":"ERC721InvalidReceiver","inputs":[{"name":"receiver","type":"address","internalType":"address"}]},{"type":"error","name":"ERC721InvalidSender","inputs":[{"name":"sender","type":"address","internalType":"address"}]},{"type":"error","name":"ERC721NonexistentToken","inputs":[{"name":"tokenId","type":"uint256","internalType":"uint256"}]},{"type":"error","name":"OwnableInvalidOwner","inputs":[{"name":"owner","type":"address","internalType":"address"}]},{"type":"error","name":"OwnableUnauthorizedAccount","inputs":[{"name":"account","type":"address","internalType":"address"}]}],"bytecode":{"object":"0x60a060405234801562000010575f80fd5b50336040518060400160405280600d81526020017f4167656e744964656e74697479000000000000000000000000000000000000008152506040518060400160405280600481526020017f41474e5400000000000000000000000000000000000000000000000000000000815250815f90816200008e91906200052d565b508060019081620000a091906200052d565b5050505f73ffffffffffffffffffffffffffffffffffffffff168173ffffffffffffffffffffffffffffffffffffffff160362000116575f6040517f1e4fbdf70000000000000000000000000000000000000000000000000000000081526004016200010d919062000654565b60405180910390fd5b62000127816200020660201b60201c565b5060016008819055507f8b73c3c69bb8fe3d512ecc4cf759cc79239f7b179b0ffacaa9a75d522b39400f6040518060400160405280601581526020017f4167656e744964656e7469747952656769737472790000000000000000000000815250805190602001206040518060400160405280600181526020017f3100000000000000000000000000000000000000000000000000000000000000815250805190602001204630604051602001620001e39594939291906200069a565b6040516020818303038152906040528051906020012060808181525050620006f5565b5f60075f9054906101000a900473ffffffffffffffffffffffffffffffffffffffff1690508160075f6101000a81548173ffffffffffffffffffffffffffffffffffffffff021916908373ffffffffffffffffffffffffffffffffffffffff1602179055508173ffffffffffffffffffffffffffffffffffffffff168173ffffffffffffffffffffffffffffffffffffffff167f8be0079c531659141344cd1fd0a4f28419497f9722a3daafe3b4186f6b6457e060405160405180910390a35050565b5f81519050919050565b7f4e487b71000000000000000000000000000000000000000000000000000000005f52604160045260245ffd5b7f4e487b71000000000000000000000000000000000000000000000000000000005f52602260045260245ffd5b5f60028204905060018216806200034557607f821691505b6020821081036200035b576200035a62000300565b5b50919050565b5f819050815f5260205f209050919050565b5f6020601f8301049050919050565b5f82821b905092915050565b5f60088302620003bf7fffffffffffffffffffffffffffffffffffffffffffffffffffffffffffffffff8262000382565b620003cb868362000382565b95508019841693508086168417925050509392505050565b5f819050919050565b5f819050919050565b5f620004156200040f6200040984620003e3565b620003ec565b620003e3565b9050919050565b5f819050919050565b6200043083620003f5565b620004486200043f826200041c565b8484546200038e565b825550505050565b5f90565b6200045e62000450565b6200046b81848462000425565b505050565b5b818110156200049257620004865f8262000454565b60018101905062000471565b5050565b601f821115620004e157620004ab8162000361565b620004b68462000373565b81016020851015620004c6578190505b620004de620004d58562000373565b83018262000470565b50505b505050565b5f82821c905092915050565b5f620005035f1984600802620004e6565b1980831691505092915050565b5f6200051d8383620004f2565b9150826002028217905092915050565b6200053882620002c9565b67ffffffffffffffff811115620005545762000553620002d3565b5b6200056082546200032d565b6200056d82828562000496565b5f60209050601f831160018114620005a3575f84156200058e578287015190505b6200059a858262000510565b86555062000609565b601f198416620005b38662000361565b5f5b82811015620005dc57848901518255600182019150602085019450602081019050620005b5565b86831015620005fc5784890151620005f8601f891682620004f2565b8355505b6001600288020188555050505b505050505050565b5f73ffffffffffffffffffffffffffffffffffffffff82169050919050565b5f6200063c8262000611565b9050919050565b6200064e8162000630565b82525050565b5f602082019050620006695f83018462000643565b92915050565b5f819050919050565b62000683816200066f565b82525050565b6200069481620003e3565b82525050565b5f60a082019050620006af5f83018862000678565b620006be602083018762000678565b620006cd604083018662000678565b620006dc606083018562000689565b620006eb608083018462000643565b9695505050505050565b608051613930620007155f395f8181610847015261100901526139305ff3fe608060405234801561000f575f80fd5b506004361061014a575f3560e01c806370a08231116100c1578063c87b56dd1161007a578063c87b56dd14610396578063cb4799f2146103c6578063e985e9c5146103f6578063ed24911d14610426578063f2c298be14610444578063f2fde38b146104745761014a565b806370a08231146102e8578063715018a6146103185780638da5cb5b1461032257806395d89b4114610340578063a22cb4651461035e578063b88d4fde1461037a5761014a565b806323b872dd1161011357806323b872dd14610218578063253cd757146102345780633d46b8191461025057806342842e0e1461028057806359f9f50f1461029c5780636352211e146102b85761014a565b80623395091461014e57806301ffc9a71461017e57806306fdde03146101ae578063081812fc146101cc578063095ea7b3146101fc575b5f80fd5b6101686004803603810190610163919061277e565b610490565b60405161017591906127e8565b60405180910390f35b61019860048036038101906101939190612856565b6104c9565b6040516101a5919061289b565b60405180910390f35b6101b6610529565b6040516101c3919061293e565b60405180910390f35b6101e660048036038101906101e1919061277e565b6105b8565b6040516101f391906127e8565b60405180910390f35b61021660048036038101906102119190612988565b6105d3565b005b610232600480360381019061022d91906129c6565b6105e9565b005b61024e60048036038101906102499190612b42565b6106e8565b005b61026a6004803603810190610265919061277e565b610a34565b6040516102779190612bbd565b60405180910390f35b61029a600480360381019061029591906129c6565b610a4e565b005b6102b660048036038101906102b19190612c74565b610a6d565b005b6102d260048036038101906102cd919061277e565b610be2565b6040516102df91906127e8565b60405180910390f35b61030260048036038101906102fd9190612cfc565b610bf3565b60405161030f9190612bbd565b60405180910390f35b610320610ca9565b005b61032a610cbc565b60405161033791906127e8565b60405180910390f35b610348610ce4565b604051610355919061293e565b60405180910390f35b61037860048036038101906103739190612d51565b610d74565b005b610394600480360381019061038f9190612d8f565b610d8a565b005b6103b060048036038101906103ab919061277e565b610daf565b6040516103bd919061293e565b60405180910390f35b6103e060048036038101906103db9190612e0f565b610eba565b6040516103ed919061293e565b60405180910390f35b610410600480360381019061040b9190612e69565b610f78565b60405161041d919061289b565b60405180910390f35b61042e611006565b60405161043b9190612ebf565b60405180910390f35b61045e60048036038101906104599190612ed8565b61102d565b60405161046b9190612bbd565b60405180910390f35b61048e60048036038101906104899190612cfc565b6110b3565b005b5f60095f8381526020019081526020015f205f9054906101000a900473ffffffffffffffffffffffffffffffffffffffff169050919050565b5f634906490660e01b7bffffffffffffffffffffffffffffffffffffffffffffffffffffffff1916827bffffffffffffffffffffffffffffffffffffffffffffffffffffffff19161480610522575061052182611137565b5b9050919050565b60605f805461053790612f4c565b80601f016020809104026020016040519081016040528092919081815260200182805461056390612f4c565b80156105ae5780601f10610585576101008083540402835291602001916105ae565b820191905f5260205f20905b81548152906001019060200180831161059157829003601f168201915b5050505050905090565b5f6105c282611218565b506105cc8261129e565b9050919050565b6105e582826105e06112d7565b6112de565b5050565b5f73ffffffffffffffffffffffffffffffffffffffff168273ffffffffffffffffffffffffffffffffffffffff1603610659575f6040517f64a0ae9200000000000000000000000000000000000000000000000000000000815260040161065091906127e8565b60405180910390fd5b5f61066c83836106676112d7565b6112f0565b90508373ffffffffffffffffffffffffffffffffffffffff168173ffffffffffffffffffffffffffffffffffffffff16146106e2578382826040517f64283d7b0000000000000000000000000000000000000000000000000000000081526004016106d993929190612f7c565b60405180910390fd5b50505050565b3373ffffffffffffffffffffffffffffffffffffffff1661070884610be2565b73ffffffffffffffffffffffffffffffffffffffff161461075e576040517f08c379a000000000000000000000000000000000000000000000000000000000815260040161075590612ffb565b60405180910390fd5b5f73ffffffffffffffffffffffffffffffffffffffff168273ffffffffffffffffffffffffffffffffffffffff16036107cc576040517f08c379a00000000000000000000000000000000000000000000000000000000081526004016107c390613063565b60405180910390fd5b5f600b5f8581526020019081526020015f205f8154809291906107ee906130ae565b9190505590505f7f14354be2dee5a88c02e69dd27542ead6aec68bbccac74fb118106bc7f40a302385858460405160200161082c94939291906130f5565b6040516020818303038152906040528051906020012090505f7f0000000000000000000000000000000000000000000000000000000000000000826040516020016108789291906131ac565b6040516020818303038152906040528051906020012090505f61089b82866114fb565b90508573ffffffffffffffffffffffffffffffffffffffff168173ffffffffffffffffffffffffffffffffffffffff161461090b576040517f08c379a00000000000000000000000000000000000000000000000000000000081526004016109029061322c565b60405180910390fd5b5f60095f8981526020019081526020015f205f9054906101000a900473ffffffffffffffffffffffffffffffffffffffff1690508660095f8a81526020019081526020015f205f6101000a81548173ffffffffffffffffffffffffffffffffffffffff021916908373ffffffffffffffffffffffffffffffffffffffff16021790555061099787611525565b600a5f8a81526020019081526020015f206040516109b490613294565b908152602001604051809103902090816109ce9190613445565b508673ffffffffffffffffffffffffffffffffffffffff168173ffffffffffffffffffffffffffffffffffffffff16897f0d116ddfe3ce0d19970e3748d0e65b606d6a7996e8ace22f241e3ba27cd1e32760405160405180910390a45050505050505050565b5f600b5f8381526020019081526020015f20549050919050565b610a6883838360405180602001604052805f815250610d8a565b505050565b3373ffffffffffffffffffffffffffffffffffffffff16610a8d84610be2565b73ffffffffffffffffffffffffffffffffffffffff1614610ae3576040517f08c379a0000000000000000000000000000000000000000000000000000000008152600401610ada90612ffb565b60405180910390fd5b6040518060400160405280600b81526020017f6167656e7457616c6c657400000000000000000000000000000000000000000081525080519060200120828051906020012003610b68576040517f08c379a0000000000000000000000000000000000000000000000000000000008152600401610b5f90613584565b60405180910390fd5b80600a5f8581526020019081526020015f2083604051610b8891906135d2565b90815260200160405180910390209081610ba29190613445565b50827fcb6206dd4d9860a713ec4b936de0feca7d2d1f54c0bf29f9d3e2a37e9f5a387b8383604051610bd59291906135e8565b60405180910390a2505050565b5f610bec82611218565b9050919050565b5f8073ffffffffffffffffffffffffffffffffffffffff168273ffffffffffffffffffffffffffffffffffffffff1603610c64575f6040517f89c62b64000000000000000000000000000000000000000000000000000000008152600401610c5b91906127e8565b60405180910390fd5b60035f8373ffffffffffffffffffffffffffffffffffffffff1673ffffffffffffffffffffffffffffffffffffffff1681526020019081526020015f20549050919050565b610cb1611835565b610cba5f6118bc565b565b5f60075f9054906101000a900473ffffffffffffffffffffffffffffffffffffffff16905090565b606060018054610cf390612f4c565b80601f0160208091040260200160405190810160405280929190818152602001828054610d1f90612f4c565b8015610d6a5780601f10610d4157610100808354040283529160200191610d6a565b820191905f5260205f20905b815481529060010190602001808311610d4d57829003601f168201915b5050505050905090565b610d86610d7f6112d7565b838361197f565b5050565b610d958484846105e9565b610da9610da06112d7565b85858585611ae8565b50505050565b6060610dba82611218565b505f60065f8481526020019081526020015f208054610dd890612f4c565b80601f0160208091040260200160405190810160405280929190818152602001828054610e0490612f4c565b8015610e4f5780601f10610e2657610100808354040283529160200191610e4f565b820191905f5260205f20905b815481529060010190602001808311610e3257829003601f168201915b505050505090505f610e5f611c94565b90505f815103610e73578192505050610eb5565b5f82511115610ea7578082604051602001610e8f92919061361d565b60405160208183030381529060405292505050610eb5565b610eb084611caa565b925050505b919050565b6060600a5f8481526020019081526020015f2082604051610edb91906135d2565b90815260200160405180910390208054610ef490612f4c565b80601f0160208091040260200160405190810160405280929190818152602001828054610f2090612f4c565b8015610f6b5780601f10610f4257610100808354040283529160200191610f6b565b820191905f5260205f20905b815481529060010190602001808311610f4e57829003601f168201915b5050505050905092915050565b5f60055f8473ffffffffffffffffffffffffffffffffffffffff1673ffffffffffffffffffffffffffffffffffffffff1681526020019081526020015f205f8373ffffffffffffffffffffffffffffffffffffffff1673ffffffffffffffffffffffffffffffffffffffff1681526020019081526020015f205f9054906101000a900460ff16905092915050565b5f7f0000000000000000000000000000000000000000000000000000000000000000905090565b5f8060085f815480929190611041906130ae565b9190505590506110513382611d10565b61105b8184611d2d565b3373ffffffffffffffffffffffffffffffffffffffff16817f0d063c6022bff16d09991a9f91882ffa112f5fb2529136f65eb4c77bbd047e43856040516110a2919061293e565b60405180910390a380915050919050565b6110bb611835565b5f73ffffffffffffffffffffffffffffffffffffffff168173ffffffffffffffffffffffffffffffffffffffff160361112b575f6040517f1e4fbdf700000000000000000000000000000000000000000000000000000000815260040161112291906127e8565b60405180910390fd5b611134816118bc565b50565b5f7f80ac58cd000000000000000000000000000000000000000000000000000000007bffffffffffffffffffffffffffffffffffffffffffffffffffffffff1916827bffffffffffffffffffffffffffffffffffffffffffffffffffffffff1916148061120157507f5b5e139f000000000000000000000000000000000000000000000000000000007bffffffffffffffffffffffffffffffffffffffffffffffffffffffff1916827bffffffffffffffffffffffffffffffffffffffffffffffffffffffff1916145b80611211575061121082611d87565b5b9050919050565b5f8061122383611df0565b90505f73ffffffffffffffffffffffffffffffffffffffff168173ffffffffffffffffffffffffffffffffffffffff160361129557826040517f7e27328900000000000000000000000000000000000000000000000000000000815260040161128c9190612bbd565b60405180910390fd5b80915050919050565b5f60045f8381526020019081526020015f205f9054906101000a900473ffffffffffffffffffffffffffffffffffffffff169050919050565b5f33905090565b6112eb8383836001611e29565b505050565b5f806112fb84611df0565b90505f73ffffffffffffffffffffffffffffffffffffffff168373ffffffffffffffffffffffffffffffffffffffff161461133c5761133b818486611fe8565b5b5f73ffffffffffffffffffffffffffffffffffffffff168173ffffffffffffffffffffffffffffffffffffffff16146113c75761137b5f855f80611e29565b600160035f8373ffffffffffffffffffffffffffffffffffffffff1673ffffffffffffffffffffffffffffffffffffffff1681526020019081526020015f205f82825403925050819055505b5f73ffffffffffffffffffffffffffffffffffffffff168573ffffffffffffffffffffffffffffffffffffffff161461144657600160035f8773ffffffffffffffffffffffffffffffffffffffff1673ffffffffffffffffffffffffffffffffffffffff1681526020019081526020015f205f82825401925050819055505b8460025f8681526020019081526020015f205f6101000a81548173ffffffffffffffffffffffffffffffffffffffff021916908373ffffffffffffffffffffffffffffffffffffffff160217905550838573ffffffffffffffffffffffffffffffffffffffff168273ffffffffffffffffffffffffffffffffffffffff167fddf252ad1be2c89b69c2b068fc378daa952ba7f163c4a11628f55a4df523b3ef60405160405180910390a4809150509392505050565b5f805f8061150986866120ab565b9250925092506115198282612100565b82935050505092915050565b60605f826040516020016115399190613685565b60405160208183030381529060405290505f6040518060400160405280601081526020017f303132333435363738396162636465660000000000000000000000000000000081525090505f60028351611592919061369f565b600261159e91906136e0565b67ffffffffffffffff8111156115b7576115b6612a1e565b5b6040519080825280601f01601f1916602001820160405280156115e95781602001600182028036833780820191505090505b5090507f3000000000000000000000000000000000000000000000000000000000000000815f815181106116205761161f613713565b5b60200101907effffffffffffffffffffffffffffffffffffffffffffffffffffffffffffff191690815f1a9053507f78000000000000000000000000000000000000000000000000000000000000008160018151811061168357611682613713565b5b60200101907effffffffffffffffffffffffffffffffffffffffffffffffffffffffffffff191690815f1a9053505f5b8351811015611829578260048583815181106116d2576116d1613713565b5b602001015160f81c60f81b7effffffffffffffffffffffffffffffffffffffffffffffffffffffffffffff1916901c60f81c60ff168151811061171857611717613713565b5b602001015160f81c60f81b82600283611731919061369f565b600261173d91906136e0565b8151811061174e5761174d613713565b5b60200101907effffffffffffffffffffffffffffffffffffffffffffffffffffffffffffff191690815f1a90535082600f60f81b85838151811061179557611794613713565b5b602001015160f81c60f81b1660f81c60ff16815181106117b8576117b7613713565b5b602001015160f81c60f81b826002836117d1919061369f565b60036117dd91906136e0565b815181106117ee576117ed613713565b5b60200101907effffffffffffffffffffffffffffffffffffffffffffffffffffffffffffff191690815f1a90535080806001019150506116b3565b50809350505050919050565b61183d6112d7565b73ffffffffffffffffffffffffffffffffffffffff1661185b610cbc565b73ffffffffffffffffffffffffffffffffffffffff16146118ba5761187e6112d7565b6040517f118cdaa70000000000000000000000000000000000000000000000000000000081526004016118b191906127e8565b60405180910390fd5b565b5f60075f9054906101000a900473ffffffffffffffffffffffffffffffffffffffff1690508160075f6101000a81548173ffffffffffffffffffffffffffffffffffffffff021916908373ffffffffffffffffffffffffffffffffffffffff1602179055508173ffffffffffffffffffffffffffffffffffffffff168173ffffffffffffffffffffffffffffffffffffffff167f8be0079c531659141344cd1fd0a4f28419497f9722a3daafe3b4186f6b6457e060405160405180910390a35050565b5f73ffffffffffffffffffffffffffffffffffffffff168273ffffffffffffffffffffffffffffffffffffffff16036119ef57816040517f5b08ba180000000000000000000000000000000000000000000000000000000081526004016119e691906127e8565b60405180910390fd5b8060055f8573ffffffffffffffffffffffffffffffffffffffff1673ffffffffffffffffffffffffffffffffffffffff1681526020019081526020015f205f8473ffffffffffffffffffffffffffffffffffffffff1673ffffffffffffffffffffffffffffffffffffffff1681526020019081526020015f205f6101000a81548160ff0219169083151502179055508173ffffffffffffffffffffffffffffffffffffffff168373ffffffffffffffffffffffffffffffffffffffff167f17307eab39ab6107e8899845ad3d59bd9653f200f220920489ca2b5937696c3183604051611adb919061289b565b60405180910390a3505050565b5f8373ffffffffffffffffffffffffffffffffffffffff163b1115611c8d578273ffffffffffffffffffffffffffffffffffffffff1663150b7a02868685856040518563ffffffff1660e01b8152600401611b469493929190613792565b6020604051808303815f875af1925050508015611b8157506040513d601f19601f82011682018060405250810190611b7e91906137f0565b60015b611c02573d805f8114611baf576040519150601f19603f3d011682016040523d82523d5f602084013e611bb4565b606091505b505f815103611bfa57836040517f64a0ae92000000000000000000000000000000000000000000000000000000008152600401611bf191906127e8565b60405180910390fd5b805160208201fd5b63150b7a0260e01b7bffffffffffffffffffffffffffffffffffffffffffffffffffffffff1916817bffffffffffffffffffffffffffffffffffffffffffffffffffffffff191614611c8b57836040517f64a0ae92000000000000000000000000000000000000000000000000000000008152600401611c8291906127e8565b60405180910390fd5b505b5050505050565b606060405180602001604052805f815250905090565b6060611cb582611218565b505f611cbf611c94565b90505f815111611cdd5760405180602001604052805f815250611d08565b80611ce784612262565b604051602001611cf892919061361d565b6040516020818303038152906040525b915050919050565b611d29828260405180602001604052805f81525061232c565b5050565b8060065f8481526020019081526020015f209081611d4b9190613445565b507ff8e1a15aba9398e019f0b49df1a4fde98ee17ae345cb5f6b5e2c27f5033e8ce782604051611d7b9190612bbd565b60405180910390a15050565b5f7f01ffc9a7000000000000000000000000000000000000000000000000000000007bffffffffffffffffffffffffffffffffffffffffffffffffffffffff1916827bffffffffffffffffffffffffffffffffffffffffffffffffffffffff1916149050919050565b5f60025f8381526020019081526020015f205f9054906101000a900473ffffffffffffffffffffffffffffffffffffffff169050919050565b8080611e6157505f73ffffffffffffffffffffffffffffffffffffffff168273ffffffffffffffffffffffffffffffffffffffff1614155b15611f93575f611e7084611218565b90505f73ffffffffffffffffffffffffffffffffffffffff168373ffffffffffffffffffffffffffffffffffffffff1614158015611eda57508273ffffffffffffffffffffffffffffffffffffffff168173ffffffffffffffffffffffffffffffffffffffff1614155b8015611eed5750611eeb8184610f78565b155b15611f2f57826040517fa9fbf51f000000000000000000000000000000000000000000000000000000008152600401611f2691906127e8565b60405180910390fd5b8115611f9157838573ffffffffffffffffffffffffffffffffffffffff168273ffffffffffffffffffffffffffffffffffffffff167f8c5be1e5ebec7d5bd14f71427d1e84f3dd0314c0f7b2291e5b200ac8c7c3b92560405160405180910390a45b505b8360045f8581526020019081526020015f205f6101000a81548173ffffffffffffffffffffffffffffffffffffffff021916908373ffffffffffffffffffffffffffffffffffffffff16021790555050505050565b611ff383838361234f565b6120a6575f73ffffffffffffffffffffffffffffffffffffffff168373ffffffffffffffffffffffffffffffffffffffff160361206757806040517f7e27328900000000000000000000000000000000000000000000000000000000815260040161205e9190612bbd565b60405180910390fd5b81816040517f177e802f00000000000000000000000000000000000000000000000000000000815260040161209d92919061381b565b60405180910390fd5b505050565b5f805f60418451036120eb575f805f602087015192506040870151915060608701515f1a90506120dd8882858561240f565b9550955095505050506120f9565b5f600285515f1b9250925092505b9250925092565b5f600381111561211357612112613842565b5b82600381111561212657612125613842565b5b031561225e57600160038111156121405761213f613842565b5b82600381111561215357612152613842565b5b0361218a576040517ff645eedf00000000000000000000000000000000000000000000000000000000815260040160405180910390fd5b6002600381111561219e5761219d613842565b5b8260038111156121b1576121b0613842565b5b036121f557805f1c6040517ffce698f70000000000000000000000000000000000000000000000000000000081526004016121ec9190612bbd565b60405180910390fd5b60038081111561220857612207613842565b5b82600381111561221b5761221a613842565b5b0361225d57806040517fd78bce0c0000000000000000000000000000000000000000000000000000000081526004016122549190612ebf565b60405180910390fd5b5b5050565b60605f6001612270846124f6565b0190505f8167ffffffffffffffff81111561228e5761228d612a1e565b5b6040519080825280601f01601f1916602001820160405280156122c05781602001600182028036833780820191505090505b5090505f82602083010190505b600115612321578080600190039150507f3031323334353637383961626364656600000000000000000000000000000000600a86061a8153600a85816123165761231561386f565b5b0494505f85036122cd575b819350505050919050565b6123368383612647565b61234a6123416112d7565b5f858585611ae8565b505050565b5f8073ffffffffffffffffffffffffffffffffffffffff168373ffffffffffffffffffffffffffffffffffffffff161415801561240657508273ffffffffffffffffffffffffffffffffffffffff168473ffffffffffffffffffffffffffffffffffffffff1614806123c757506123c68484610f78565b5b8061240557508273ffffffffffffffffffffffffffffffffffffffff166123ed8361129e565b73ffffffffffffffffffffffffffffffffffffffff16145b5b90509392505050565b5f805f7f7fffffffffffffffffffffffffffffff5d576e7357a4501ddfe92f46681b20a0845f1c111561244b575f6003859250925092506124ec565b5f6001888888886040515f815260200160405260405161246e94939291906138b7565b6020604051602081039080840390855afa15801561248e573d5f803e3d5ffd5b5050506020604051035190505f73ffffffffffffffffffffffffffffffffffffffff168173ffffffffffffffffffffffffffffffffffffffff16036124df575f60015f801b935093509350506124ec565b805f805f1b935093509350505b9450945094915050565b5f805f90507a184f03e93ff9f4daa797ed6e38ed64bf6a1f0100000000000000008310612552577a184f03e93ff9f4daa797ed6e38ed64bf6a1f01000000000000000083816125485761254761386f565b5b0492506040810190505b6d04ee2d6d415b85acef8100000000831061258f576d04ee2d6d415b85acef810000000083816125855761258461386f565b5b0492506020810190505b662386f26fc1000083106125be57662386f26fc1000083816125b4576125b361386f565b5b0492506010810190505b6305f5e10083106125e7576305f5e10083816125dd576125dc61386f565b5b0492506008810190505b612710831061260c5761271083816126025761260161386f565b5b0492506004810190505b6064831061262f57606483816126255761262461386f565b5b0492506002810190505b600a831061263e576001810190505b80915050919050565b5f73ffffffffffffffffffffffffffffffffffffffff168273ffffffffffffffffffffffffffffffffffffffff16036126b7575f6040517f64a0ae920000000000000000000000000000000000000000000000000000000081526004016126ae91906127e8565b60405180910390fd5b5f6126c383835f6112f0565b90505f73ffffffffffffffffffffffffffffffffffffffff168173ffffffffffffffffffffffffffffffffffffffff1614612735575f6040517f73c6ac6e00000000000000000000000000000000000000000000000000000000815260040161272c91906127e8565b60405180910390fd5b505050565b5f604051905090565b5f80fd5b5f80fd5b5f819050919050565b61275d8161274b565b8114612767575f80fd5b50565b5f8135905061277881612754565b92915050565b5f6020828403121561279357612792612743565b5b5f6127a08482850161276a565b91505092915050565b5f73ffffffffffffffffffffffffffffffffffffffff82169050919050565b5f6127d2826127a9565b9050919050565b6127e2816127c8565b82525050565b5f6020820190506127fb5f8301846127d9565b92915050565b5f7fffffffff0000000000000000000000000000000000000000000000000000000082169050919050565b61283581612801565b811461283f575f80fd5b50565b5f813590506128508161282c565b92915050565b5f6020828403121561286b5761286a612743565b5b5f61287884828501612842565b91505092915050565b5f8115159050919050565b61289581612881565b82525050565b5f6020820190506128ae5f83018461288c565b92915050565b5f81519050919050565b5f82825260208201905092915050565b5f5b838110156128eb5780820151818401526020810190506128d0565b5f8484015250505050565b5f601f19601f8301169050919050565b5f612910826128b4565b61291a81856128be565b935061292a8185602086016128ce565b612933816128f6565b840191505092915050565b5f6020820190508181035f8301526129568184612906565b905092915050565b612967816127c8565b8114612971575f80fd5b50565b5f813590506129828161295e565b92915050565b5f806040838503121561299e5761299d612743565b5b5f6129ab85828601612974565b92505060206129bc8582860161276a565b9150509250929050565b5f805f606084860312156129dd576129dc612743565b5b5f6129ea86828701612974565b93505060206129fb86828701612974565b9250506040612a0c8682870161276a565b9150509250925092565b5f80fd5b5f80fd5b7f4e487b71000000000000000000000000000000000000000000000000000000005f52604160045260245ffd5b612a54826128f6565b810181811067ffffffffffffffff82111715612a7357612a72612a1e565b5b80604052505050565b5f612a8561273a565b9050612a918282612a4b565b919050565b5f67ffffffffffffffff821115612ab057612aaf612a1e565b5b612ab9826128f6565b9050602081019050919050565b828183375f83830152505050565b5f612ae6612ae184612a96565b612a7c565b905082815260208101848484011115612b0257612b01612a1a565b5b612b0d848285612ac6565b509392505050565b5f82601f830112612b2957612b28612a16565b5b8135612b39848260208601612ad4565b91505092915050565b5f805f60608486031215612b5957612b58612743565b5b5f612b668682870161276a565b9350506020612b7786828701612974565b925050604084013567ffffffffffffffff811115612b9857612b97612747565b5b612ba486828701612b15565b9150509250925092565b612bb78161274b565b82525050565b5f602082019050612bd05f830184612bae565b92915050565b5f67ffffffffffffffff821115612bf057612bef612a1e565b5b612bf9826128f6565b9050602081019050919050565b5f612c18612c1384612bd6565b612a7c565b905082815260208101848484011115612c3457612c33612a1a565b5b612c3f848285612ac6565b509392505050565b5f82601f830112612c5b57612c5a612a16565b5b8135612c6b848260208601612c06565b91505092915050565b5f805f60608486031215612c8b57612c8a612743565b5b5f612c988682870161276a565b935050602084013567ffffffffffffffff811115612cb957612cb8612747565b5b612cc586828701612c47565b925050604084013567ffffffffffffffff811115612ce657612ce5612747565b5b612cf286828701612c47565b9150509250925092565b5f60208284031215612d1157612d10612743565b5b5f612d1e84828501612974565b91505092915050565b612d3081612881565b8114612d3a575f80fd5b50565b5f81359050612d4b81612d27565b92915050565b5f8060408385031215612d6757612d66612743565b5b5f612d7485828601612974565b9250506020612d8585828601612d3d565b9150509250929050565b5f805f8060808587031215612da757612da6612743565b5b5f612db487828801612974565b9450506020612dc587828801612974565b9350506040612dd68782880161276a565b925050606085013567ffffffffffffffff811115612df757612df6612747565b5b612e0387828801612b15565b91505092959194509250565b5f8060408385031215612e2557612e24612743565b5b5f612e328582860161276a565b925050602083013567ffffffffffffffff811115612e5357612e52612747565b5b612e5f85828601612c47565b9150509250929050565b5f8060408385031215612e7f57612e7e612743565b5b5f612e8c85828601612974565b9250506020612e9d85828601612974565b9150509250929050565b5f819050919050565b612eb981612ea7565b82525050565b5f602082019050612ed25f830184612eb0565b92915050565b5f60208284031215612eed57612eec612743565b5b5f82013567ffffffffffffffff811115612f0a57612f09612747565b5b612f1684828501612c47565b91505092915050565b7f4e487b71000000000000000000000000000000000000000000000000000000005f52602260045260245ffd5b5f6002820490506001821680612f6357607f821691505b602082108103612f7657612f75612f1f565b5b50919050565b5f606082019050612f8f5f8301866127d9565b612f9c6020830185612bae565b612fa960408301846127d9565b949350505050565b7f4e6f74206167656e74206f776e657200000000000000000000000000000000005f82015250565b5f612fe5600f836128be565b9150612ff082612fb1565b602082019050919050565b5f6020820190508181035f83015261301281612fd9565b9050919050565b7f496e76616c69642077616c6c65742061646472657373000000000000000000005f82015250565b5f61304d6016836128be565b915061305882613019565b602082019050919050565b5f6020820190508181035f83015261307a81613041565b9050919050565b7f4e487b71000000000000000000000000000000000000000000000000000000005f52601160045260245ffd5b5f6130b88261274b565b91507fffffffffffffffffffffffffffffffffffffffffffffffffffffffffffffffff82036130ea576130e9613081565b5b600182019050919050565b5f6080820190506131085f830187612eb0565b6131156020830186612bae565b61312260408301856127d9565b61312f6060830184612bae565b95945050505050565b5f81905092915050565b7f19010000000000000000000000000000000000000000000000000000000000005f82015250565b5f613176600283613138565b915061318182613142565b600282019050919050565b5f819050919050565b6131a66131a182612ea7565b61318c565b82525050565b5f6131b68261316a565b91506131c28285613195565b6020820191506131d28284613195565b6020820191508190509392505050565b7f496e76616c6964207369676e61747572650000000000000000000000000000005f82015250565b5f6132166011836128be565b9150613221826131e2565b602082019050919050565b5f6020820190508181035f8301526132438161320a565b9050919050565b7f6167656e7457616c6c65740000000000000000000000000000000000000000005f82015250565b5f61327e600b83613138565b91506132898261324a565b600b82019050919050565b5f61329e82613272565b9150819050919050565b5f819050815f5260205f209050919050565b5f6020601f8301049050919050565b5f82821b905092915050565b5f600883026133047fffffffffffffffffffffffffffffffffffffffffffffffffffffffffffffffff826132c9565b61330e86836132c9565b95508019841693508086168417925050509392505050565b5f819050919050565b5f61334961334461333f8461274b565b613326565b61274b565b9050919050565b5f819050919050565b6133628361332f565b61337661336e82613350565b8484546132d5565b825550505050565b5f90565b61338a61337e565b613395818484613359565b505050565b5b818110156133b8576133ad5f82613382565b60018101905061339b565b5050565b601f8211156133fd576133ce816132a8565b6133d7846132ba565b810160208510156133e6578190505b6133fa6133f2856132ba565b83018261339a565b50505b505050565b5f82821c905092915050565b5f61341d5f1984600802613402565b1980831691505092915050565b5f613435838361340e565b9150826002028217905092915050565b61344e826128b4565b67ffffffffffffffff81111561346757613466612a1e565b5b6134718254612f4c565b61347c8282856133bc565b5f60209050601f8311600181146134ad575f841561349b578287015190505b6134a5858261342a565b86555061350c565b601f1984166134bb866132a8565b5f5b828110156134e2578489015182556001820191506020850194506020810190506134bd565b868310156134ff57848901516134fb601f89168261340e565b8355505b6001600288020188555050505b505050505050565b7f557365207365744167656e7457616c6c657420666f72206167656e7457616c6c5f8201527f6574000000000000000000000000000000000000000000000000000000000000602082015250565b5f61356e6022836128be565b915061357982613514565b604082019050919050565b5f6020820190508181035f83015261359b81613562565b9050919050565b5f6135ac826128b4565b6135b68185613138565b93506135c68185602086016128ce565b80840191505092915050565b5f6135dd82846135a2565b915081905092915050565b5f6040820190508181035f8301526136008185612906565b905081810360208301526136148184612906565b90509392505050565b5f61362882856135a2565b915061363482846135a2565b91508190509392505050565b5f8160601b9050919050565b5f61365682613640565b9050919050565b5f6136678261364c565b9050919050565b61367f61367a826127c8565b61365d565b82525050565b5f613690828461366e565b60148201915081905092915050565b5f6136a98261274b565b91506136b48361274b565b92508282026136c28161274b565b915082820484148315176136d9576136d8613081565b5b5092915050565b5f6136ea8261274b565b91506136f58361274b565b925082820190508082111561370d5761370c613081565b5b92915050565b7f4e487b71000000000000000000000000000000000000000000000000000000005f52603260045260245ffd5b5f81519050919050565b5f82825260208201905092915050565b5f61376482613740565b61376e818561374a565b935061377e8185602086016128ce565b613787816128f6565b840191505092915050565b5f6080820190506137a55f8301876127d9565b6137b260208301866127d9565b6137bf6040830185612bae565b81810360608301526137d1818461375a565b905095945050505050565b5f815190506137ea8161282c565b92915050565b5f6020828403121561380557613804612743565b5b5f613812848285016137dc565b91505092915050565b5f60408201905061382e5f8301856127d9565b61383b6020830184612bae565b9392505050565b7f4e487b71000000000000000000000000000000000000000000000000000000005f52602160045260245ffd5b7f4e487b71000000000000000000000000000000000000000000000000000000005f52601260045260245ffd5b5f60ff82169050919050565b6138b18161389c565b82525050565b5f6080820190506138ca5f830187612eb0565b6138d760208301866138a8565b6138e46040830185612eb0565b6138f16060830184612eb0565b9594505050505056fea2646970667358221220955ce58f54c2fa09b5c70205c1600c36b7f98f45fe896795ace2dac2b753ed5e64736f6c63430008180033","linkReferences":{}},"methodIdentifiers":{"approve(address,uint256)":"095ea7b3","balanceOf(address)":"70a08231","getAgentWallet(uint256)":"00339509","getApproved(uint256)":"081812fc","getDomainSeparator()":"ed24911d","getMetadata(uint256,string)":"cb4799f2","getNonce(uint256)":"3d46b819","isApprovedForAll(address,address)":"e985e9c5","name()":"06fdde03","owner()":"8da5cb5b","ownerOf(uint256)":"6352211e","register(string)":"f2c298be","renounceOwnership()":"715018a6","safeTransferFrom(address,address,uint256)":"42842e0e","safeTransferFrom(address,address,uint256,bytes)":"b88d4fde","setAgentWallet(uint256,address,bytes)":"253cd757","setApprovalForAll(address,bool)":"a22cb465","setMetadata(uint256,string,string)":"59f9f50f","supportsInterface(bytes4)":"01ffc9a7","symbol()":"95d89b41","tokenURI(uint256)":"c87b56dd","transferFrom(address,address,uint256)":"23b872dd","transferOwnership(address)":"f2fde38b"},"id":41}