{"abi":[{"type":"function","name":"generateRequestHash","inputs":[{"name":"validator","type":"address","internalType":"address"},{"name":"agentId","type":"uint256","internalType":"uint256"},{"name":"requestURI","type":"string","internalType":"string"},{"name":"nonce","type":"uint256","internalType":"uint256"}],"outputs":[{"name":"","type":"bytes32","internalType":"bytes32"}],"stateMutability":"pure"},{"type":"function","name":"getAgentValidations","inputs":[{"name":"agentId","type":"uint256","internalType":"uint256"},{"name":"validator","type":"address","internalType":"address"}],"outputs":[{"name":"","type":"bytes32[]","internalType":"bytes32[]"}],"stateMutability":"view"},{"type":"function","name":"getValidation","inputs":[{"name":"requestHash","type":"bytes32","internalType":"bytes32"}],"outputs":[{"name":"","type":"tuple","internalType":"struct AgentValidationRegistry.ValidationRequest","components":[{"name":"requester","type":"address","internalType":"address"},{"name":"validator","type":"address","internalType":"address"},{"name":"agentId","type":"uint256","internalType":"uint256"},{"name":"requestURI","type":"string","internalType":"string"},{"name":"requestHash","type":"bytes32","internalType":"bytes32"},{"name":"timestamp","type":"uint64","internalType":"uint64"},{"name":"response","type":"uint8","internalType":"enum AgentValidationRegistry.ValidationResponse"},{"name":"responseURI","type":"string","internalType":"string"},{"name":"responseTimestamp","type":"uint64","internalType":"uint64"}]}],"stateMutability":"view"},{"type":"function","name":"getValidationStats","inputs":[{"name":"agentId","type":"uint256","internalType":"uint256"},{"name":"validators","type":"address[]","internalType":"address[]"}],"outputs":[{"name":"approvedCount","type":"uint256","internalType":"uint256"},{"name":"rejectedCount","type":"uint256","internalType":"uint256"},{"name":"pendingCount","type":"uint256","internalType":"uint256"},{"name":"needsInfoCount","type":"uint256","internalType":"uint256"}],"stateMutability":"view"},{"type":"function","name":"getValidationStatus","inputs":[{"name":"requestHash","type":"bytes32","internalType":"bytes32"}],"outputs":[{"name":"","type":"uint8","internalType":"enum AgentValidationRegistry.ValidationResponse"}],"stateMutability":"view"},{"type":"function","name":"validationExists","inputs":[{"name":"requestHash","type":"bytes32","internalType":"bytes32"}],"outputs":[{"name":"","type":"bool","internalType":"bool"}],"stateMutability":"view"},{"type":"function","name":"validationRequest","inputs":[{"name":"validator","type":"address","internalType":"address"},{"name":"agentId","type":"uint256","internalType":"uint256"},{"name":"requestURI","type":"string","internalType":"string"},{"name":"requestHash","type":"bytes32","internalType":"bytes32"}],"outputs":[{"name":"","type":"bytes32","internalType":"bytes32"}],"stateMutability":"nonpayable"},{"type":"function","name":"validationResponse","inputs":[{"name":"requestHash","type":"bytes32","internalType":"bytes32"},{"name":"response","type":"uint8","internalType":"uint8"},{"name":"responseURI","type":"string","internalType":"string"}],"outputs":[],"stateMutability":"nonpayable"},{"type":"event","name":"ValidationRequested","inputs":[{"name":"requestHash","type":"bytes32","indexed":true,"internalType":"bytes32"},{"name":"validator","type":"address","indexed":true,"internalType":"address"},{"name":"agentId","type":"uint256","indexed":true,"internalType":"uint256"},{"name":"requester","type":"address","indexed":false,"internalType":"address"},{"name":"requestURI","type":"string","indexed":false,"internalType":"string"}],"anonymous":false},{"type":"event","name":"ValidationResponded","inputs":[{"name":"requestHash","type":"bytes32","indexed":true,"internalType":"bytes32"},{"name":"validator","type":"address","indexed":true,"internalType":"address"},{"name":"agentId","type":"uint256","indexed":true,"internalType":"uint256"},{"name":"response","type":"uint8","indexed":false,"internalType":"uint8"},{"name":"responseURI","type":"string","indexed":false,"internalType":"string"}],"anonymous":false}],"bytecode":{"object":"0x608060405234801561000f575f80fd5b50611f798061001d5f395ff3fe608060405234801561000f575f80fd5b5060043610610086575f3560e01c8063d2aa7b5a11610059578063d2aa7b5a14610136578063d4b0166a14610166578063e0e5be8f14610199578063ff2febfc146101c957610086565b80634485c8921461008a578063613fae4c146100ba578063a8091fc3146100d6578063aaf400c414610106575b5f80fd5b6100a4600480360381019061009f91906110a1565b6101f9565b6040516100b19190611139565b60405180910390f35b6100d460048036038101906100cf91906111b2565b610231565b005b6100f060048036038101906100eb919061121e565b6104e3565b6040516100fd919061144e565b60405180910390f35b610120600480360381019061011b919061146e565b610788565b60405161012d9190611139565b60405180910390f35b610150600480360381019061014b919061121e565b610b40565b60405161015d9190611508565b60405180910390f35b610180600480360381019061017b91906115e5565b610b7c565b604051610190949392919061164e565b60405180910390f35b6101b360048036038101906101ae9190611691565b610d61565b6040516101c09190611777565b60405180910390f35b6101e360048036038101906101de919061121e565b610e04565b6040516101f091906117a6565b60405180910390f35b5f84848484604051602001610211949392919061185e565b604051602081830303815290604052805190602001209050949350505050565b5f805f8581526020019081526020015f2090505f816005015f9054906101000a900467ffffffffffffffff1667ffffffffffffffff16036102a7576040517f08c379a000000000000000000000000000000000000000000000000000000000815260040161029e90611901565b60405180910390fd5b3373ffffffffffffffffffffffffffffffffffffffff16816001015f9054906101000a900473ffffffffffffffffffffffffffffffffffffffff1673ffffffffffffffffffffffffffffffffffffffff1614610338576040517f08c379a000000000000000000000000000000000000000000000000000000000815260040161032f90611969565b60405180910390fd5b5f600381111561034b5761034a611312565b5b8160050160089054906101000a900460ff16600381111561036f5761036e611312565b5b146103af576040517f08c379a00000000000000000000000000000000000000000000000000000000081526004016103a6906119d1565b60405180910390fd5b6003808111156103c2576103c1611312565b5b60ff168360ff16111561040a576040517f08c379a000000000000000000000000000000000000000000000000000000000815260040161040190611a39565b60405180910390fd5b8260ff1660038111156104205761041f611312565b5b8160050160086101000a81548160ff0219169083600381111561044657610445611312565b5b02179055508181600601908161045c9190611c51565b5042816007015f6101000a81548167ffffffffffffffff021916908367ffffffffffffffff16021790555080600201543373ffffffffffffffffffffffffffffffffffffffff16857f3704cdc29614c2d637b606b5f66c5a85849cdbb1d3ed8eaebe08705561ccabf186866040516104d5929190611d67565b60405180910390a450505050565b6104eb610e2d565b5f808381526020019081526020015f20604051806101200160405290815f82015f9054906101000a900473ffffffffffffffffffffffffffffffffffffffff1673ffffffffffffffffffffffffffffffffffffffff1673ffffffffffffffffffffffffffffffffffffffff168152602001600182015f9054906101000a900473ffffffffffffffffffffffffffffffffffffffff1673ffffffffffffffffffffffffffffffffffffffff1673ffffffffffffffffffffffffffffffffffffffff168152602001600282015481526020016003820180546105ca90611a84565b80601f01602080910402602001604051908101604052809291908181526020018280546105f690611a84565b80156106415780601f1061061857610100808354040283529160200191610641565b820191905f5260205f20905b81548152906001019060200180831161062457829003601f168201915b5050505050815260200160048201548152602001600582015f9054906101000a900467ffffffffffffffff1667ffffffffffffffff1667ffffffffffffffff1681526020016005820160089054906101000a900460ff1660038111156106aa576106a9611312565b5b60038111156106bc576106bb611312565b5b81526020016006820180546106d090611a84565b80601f01602080910402602001604051908101604052809291908181526020018280546106fc90611a84565b80156107475780601f1061071e57610100808354040283529160200191610747565b820191905f5260205f20905b81548152906001019060200180831161072a57829003601f168201915b50505050508152602001600782015f9054906101000a900467ffffffffffffffff1667ffffffffffffffff1667ffffffffffffffff16815250509050919050565b5f8073ffffffffffffffffffffffffffffffffffffffff168573ffffffffffffffffffffffffffffffffffffffff16036107f7576040517f08c379a00000000000000000000000000000000000000000000000000000000081526004016107ee90611ddf565b60405180910390fd5b5f805f8481526020019081526020015f206005015f9054906101000a900467ffffffffffffffff1667ffffffffffffffff1614610869576040517f08c379a000000000000000000000000000000000000000000000000000000000815260040161086090611e47565b60405180910390fd5b6040518061012001604052803373ffffffffffffffffffffffffffffffffffffffff1681526020018673ffffffffffffffffffffffffffffffffffffffff1681526020018581526020018481526020018381526020014267ffffffffffffffff1681526020015f60038111156108e2576108e1611312565b5b815260200160405180602001604052805f81525081526020015f67ffffffffffffffff168152505f808481526020019081526020015f205f820151815f015f6101000a81548173ffffffffffffffffffffffffffffffffffffffff021916908373ffffffffffffffffffffffffffffffffffffffff1602179055506020820151816001015f6101000a81548173ffffffffffffffffffffffffffffffffffffffff021916908373ffffffffffffffffffffffffffffffffffffffff1602179055506040820151816002015560608201518160030190816109c29190611c51565b506080820151816004015560a0820151816005015f6101000a81548167ffffffffffffffff021916908367ffffffffffffffff16021790555060c08201518160050160086101000a81548160ff02191690836003811115610a2657610a25611312565b5b021790555060e0820151816006019081610a409190611c51565b50610100820151816007015f6101000a81548167ffffffffffffffff021916908367ffffffffffffffff16021790555090505060015f8581526020019081526020015f205f8673ffffffffffffffffffffffffffffffffffffffff1673ffffffffffffffffffffffffffffffffffffffff1681526020019081526020015f2082908060018154018082558091505060019003905f5260205f20015f9091909190915055838573ffffffffffffffffffffffffffffffffffffffff16837f73f511fe6efdaa199775903edd45eab432b7cf1fac9a5b40119e266db651d23b3387604051610b2d929190611e74565b60405180910390a4819050949350505050565b5f805f808481526020019081526020015f206005015f9054906101000a900467ffffffffffffffff1667ffffffffffffffff1614159050919050565b5f805f805f5b8551811015610d57575f60015f8981526020019081526020015f205f888481518110610bb157610bb0611ea2565b5b602002602001015173ffffffffffffffffffffffffffffffffffffffff1673ffffffffffffffffffffffffffffffffffffffff1681526020019081526020015f2090505f5b8180549050811015610d48575f805f848481548110610c1857610c17611ea2565b5b905f5260205f20015481526020019081526020015f2060050160089054906101000a900460ff16905060016003811115610c5557610c54611312565b5b816003811115610c6857610c67611312565b5b03610c80578780610c7890611efc565b985050610d3a565b60026003811115610c9457610c93611312565b5b816003811115610ca757610ca6611312565b5b03610cbf578680610cb790611efc565b975050610d39565b5f6003811115610cd257610cd1611312565b5b816003811115610ce557610ce4611312565b5b03610cfd578580610cf590611efc565b965050610d38565b600380811115610d1057610d0f611312565b5b816003811115610d2357610d22611312565b5b03610d37578480610d3390611efc565b9550505b5b5b5b508080600101915050610bf6565b50508080600101915050610b82565b5092959194509250565b606060015f8481526020019081526020015f205f8373ffffffffffffffffffffffffffffffffffffffff1673ffffffffffffffffffffffffffffffffffffffff1681526020019081526020015f20805480602002602001604051908101604052809291908181526020018280548015610df757602002820191905f5260205f20905b815481526020019060010190808311610de3575b5050505050905092915050565b5f805f8381526020019081526020015f2060050160089054906101000a900460ff169050919050565b6040518061012001604052805f73ffffffffffffffffffffffffffffffffffffffff1681526020015f73ffffffffffffffffffffffffffffffffffffffff1681526020015f8152602001606081526020015f80191681526020015f67ffffffffffffffff1681526020015f6003811115610eaa57610ea9611312565b5b8152602001606081526020015f67ffffffffffffffff1681525090565b5f604051905090565b5f80fd5b5f80fd5b5f73ffffffffffffffffffffffffffffffffffffffff82169050919050565b5f610f0182610ed8565b9050919050565b610f1181610ef7565b8114610f1b575f80fd5b50565b5f81359050610f2c81610f08565b92915050565b5f819050919050565b610f4481610f32565b8114610f4e575f80fd5b50565b5f81359050610f5f81610f3b565b92915050565b5f80fd5b5f80fd5b5f601f19601f8301169050919050565b7f4e487b71000000000000000000000000000000000000000000000000000000005f52604160045260245ffd5b610fb382610f6d565b810181811067ffffffffffffffff82111715610fd257610fd1610f7d565b5b80604052505050565b5f610fe4610ec7565b9050610ff08282610faa565b919050565b5f67ffffffffffffffff82111561100f5761100e610f7d565b5b61101882610f6d565b9050602081019050919050565b828183375f83830152505050565b5f61104561104084610ff5565b610fdb565b90508281526020810184848401111561106157611060610f69565b5b61106c848285611025565b509392505050565b5f82601f83011261108857611087610f65565b5b8135611098848260208601611033565b91505092915050565b5f805f80608085870312156110b9576110b8610ed0565b5b5f6110c687828801610f1e565b94505060206110d787828801610f51565b935050604085013567ffffffffffffffff8111156110f8576110f7610ed4565b5b61110487828801611074565b925050606061111587828801610f51565b91505092959194509250565b5f819050919050565b61113381611121565b82525050565b5f60208201905061114c5f83018461112a565b92915050565b61115b81611121565b8114611165575f80fd5b50565b5f8135905061117681611152565b92915050565b5f60ff82169050919050565b6111918161117c565b811461119b575f80fd5b50565b5f813590506111ac81611188565b92915050565b5f805f606084860312156111c9576111c8610ed0565b5b5f6111d686828701611168565b93505060206111e78682870161119e565b925050604084013567ffffffffffffffff81111561120857611207610ed4565b5b61121486828701611074565b9150509250925092565b5f6020828403121561123357611232610ed0565b5b5f61124084828501611168565b91505092915050565b61125281610ef7565b82525050565b61126181610f32565b82525050565b5f81519050919050565b5f82825260208201905092915050565b5f5b8381101561129e578082015181840152602081019050611283565b5f8484015250505050565b5f6112b382611267565b6112bd8185611271565b93506112cd818560208601611281565b6112d681610f6d565b840191505092915050565b6112ea81611121565b82525050565b5f67ffffffffffffffff82169050919050565b61130c816112f0565b82525050565b7f4e487b71000000000000000000000000000000000000000000000000000000005f52602160045260245ffd5b600481106113505761134f611312565b5b50565b5f8190506113608261133f565b919050565b5f61136f82611353565b9050919050565b61137f81611365565b82525050565b5f61012083015f83015161139b5f860182611249565b5060208301516113ae6020860182611249565b5060408301516113c16040860182611258565b50606083015184820360608601526113d982826112a9565b91505060808301516113ee60808601826112e1565b5060a083015161140160a0860182611303565b5060c083015161141460c0860182611376565b5060e083015184820360e086015261142c82826112a9565b915050610100830151611443610100860182611303565b508091505092915050565b5f6020820190508181035f8301526114668184611385565b905092915050565b5f805f806080858703121561148657611485610ed0565b5b5f61149387828801610f1e565b94505060206114a487828801610f51565b935050604085013567ffffffffffffffff8111156114c5576114c4610ed4565b5b6114d187828801611074565b92505060606114e287828801611168565b91505092959194509250565b5f8115159050919050565b611502816114ee565b82525050565b5f60208201905061151b5f8301846114f9565b92915050565b5f67ffffffffffffffff82111561153b5761153a610f7d565b5b602082029050602081019050919050565b5f80fd5b5f61156261155d84611521565b610fdb565b905080838252602082019050602084028301858111156115855761158461154c565b5b835b818110156115ae578061159a8882610f1e565b845260208401935050602081019050611587565b5050509392505050565b5f82601f8301126115cc576115cb610f65565b5b81356115dc848260208601611550565b91505092915050565b5f80604083850312156115fb576115fa610ed0565b5b5f61160885828601610f51565b925050602083013567ffffffffffffffff81111561162957611628610ed4565b5b611635858286016115b8565b9150509250929050565b61164881610f32565b82525050565b5f6080820190506116615f83018761163f565b61166e602083018661163f565b61167b604083018561163f565b611688606083018461163f565b95945050505050565b5f80604083850312156116a7576116a6610ed0565b5b5f6116b485828601610f51565b92505060206116c585828601610f1e565b9150509250929050565b5f81519050919050565b5f82825260208201905092915050565b5f819050602082019050919050565b5f61170383836112e1565b60208301905092915050565b5f602082019050919050565b5f611725826116cf565b61172f81856116d9565b935061173a836116e9565b805f5b8381101561176a57815161175188826116f8565b975061175c8361170f565b92505060018101905061173d565b5085935050505092915050565b5f6020820190508181035f83015261178f818461171b565b905092915050565b6117a081611365565b82525050565b5f6020820190506117b95f830184611797565b92915050565b5f8160601b9050919050565b5f6117d5826117bf565b9050919050565b5f6117e6826117cb565b9050919050565b6117fe6117f982610ef7565b6117dc565b82525050565b5f819050919050565b61181e61181982610f32565b611804565b82525050565b5f81905092915050565b5f61183882611267565b6118428185611824565b9350611852818560208601611281565b80840191505092915050565b5f61186982876117ed565b601482019150611879828661180d565b602082019150611889828561182e565b9150611895828461180d565b60208201915081905095945050505050565b5f82825260208201905092915050565b7f5265717565737420646f6573206e6f74206578697374000000000000000000005f82015250565b5f6118eb6016836118a7565b91506118f6826118b7565b602082019050919050565b5f6020820190508181035f830152611918816118df565b9050919050565b7f4e6f74207468652076616c696461746f720000000000000000000000000000005f82015250565b5f6119536011836118a7565b915061195e8261191f565b602082019050919050565b5f6020820190508181035f83015261198081611947565b9050919050565b7f416c726561647920726573706f6e6465640000000000000000000000000000005f82015250565b5f6119bb6011836118a7565b91506119c682611987565b602082019050919050565b5f6020820190508181035f8301526119e8816119af565b9050919050565b7f496e76616c696420726573706f6e7365000000000000000000000000000000005f82015250565b5f611a236010836118a7565b9150611a2e826119ef565b602082019050919050565b5f6020820190508181035f830152611a5081611a17565b9050919050565b7f4e487b71000000000000000000000000000000000000000000000000000000005f52602260045260245ffd5b5f6002820490506001821680611a9b57607f821691505b602082108103611aae57611aad611a57565b5b50919050565b5f819050815f5260205f209050919050565b5f6020601f8301049050919050565b5f82821b905092915050565b5f60088302611b107fffffffffffffffffffffffffffffffffffffffffffffffffffffffffffffffff82611ad5565b611b1a8683611ad5565b95508019841693508086168417925050509392505050565b5f819050919050565b5f611b55611b50611b4b84610f32565b611b32565b610f32565b9050919050565b5f819050919050565b611b6e83611b3b565b611b82611b7a82611b5c565b848454611ae1565b825550505050565b5f90565b611b96611b8a565b611ba1818484611b65565b505050565b5b81811015611bc457611bb95f82611b8e565b600181019050611ba7565b5050565b601f821115611c0957611bda81611ab4565b611be384611ac6565b81016020851015611bf2578190505b611c06611bfe85611ac6565b830182611ba6565b50505b505050565b5f82821c905092915050565b5f611c295f1984600802611c0e565b1980831691505092915050565b5f611c418383611c1a565b9150826002028217905092915050565b611c5a82611267565b67ffffffffffffffff811115611c7357611c72610f7d565b5b611c7d8254611a84565b611c88828285611bc8565b5f60209050601f831160018114611cb9575f8415611ca7578287015190505b611cb18582611c36565b865550611d18565b601f198416611cc786611ab4565b5f5b82811015611cee57848901518255600182019150602085019450602081019050611cc9565b86831015611d0b5784890151611d07601f891682611c1a565b8355505b6001600288020188555050505b505050505050565b611d298161117c565b82525050565b5f611d3982611267565b611d4381856118a7565b9350611d53818560208601611281565b611d5c81610f6d565b840191505092915050565b5f604082019050611d7a5f830185611d20565b8181036020830152611d8c8184611d2f565b90509392505050565b7f496e76616c69642076616c696461746f722061646472657373000000000000005f82015250565b5f611dc96019836118a7565b9150611dd482611d95565b602082019050919050565b5f6020820190508181035f830152611df681611dbd565b9050919050565b7f5265717565737420616c726561647920657869737473000000000000000000005f82015250565b5f611e316016836118a7565b9150611e3c82611dfd565b602082019050919050565b5f6020820190508181035f830152611e5e81611e25565b9050919050565b611e6e81610ef7565b82525050565b5f604082019050611e875f830185611e65565b8181036020830152611e998184611d2f565b90509392505050565b7f4e487b71000000000000000000000000000000000000000000000000000000005f52603260045260245ffd5b7f4e487b71000000000000000000000000000000000000000000000000000000005f52601160045260245ffd5b5f611f0682610f32565b91507fffffffffffffffffffffffffffffffffffffffffffffffffffffffffffffffff8203611f3857611f37611ecf565b5b60018201905091905056fea2646970667358221220d346533378c787241613929a0b272db56482fc7d2a3444c5c6d97e510d366ce764736f6c63430008180033","linkReferences":{}},"methodIdentifiers":{"generateRequestHash(address,uint256,string,uint256)":"4485c892","getAgentValidations(uint256,address)":"e0e5be8f","getValidation(bytes32)":"a8091fc3","getValidationStats(uint256,address[])":"d4b0166a","getValidationStatus(bytes32)":"ff2febfc","validationExists(bytes32)":"d2aa7b5a","validationRequest(address,uint256,string,bytes32)":"aaf400c4","validationResponse(bytes32,uint8,string)":"613fae4c"},"id":45}