{"abi":[{"type":"function","name":"getClientFeedback","inputs":[{"name":"agentId","type":"uint256","internalType":"uint256"},{"name":"client","type":"address","internalType":"address"}],"outputs":[{"name":"","type":"tuple[]","internalType":"struct AgentReputationRegistry.Feedback[]","components":[{"name":"client","type":"address","internalType":"address"},{"name":"value","type":"int128","internalType":"int128"},{"name":"decimals","type":"uint8","internalType":"uint8"},{"name":"tag1","type":"string","internalType":"string"},{"name":"tag2","type":"string","internalType":"string"},{"name":"feedbackURI","type":"string","internalType":"string"},{"name":"timestamp","type":"uint64","internalType":"uint64"},{"name":"revoked","type":"bool","internalType":"bool"}]}],"stateMutability":"view"},{"type":"function","name":"getFeedback","inputs":[{"name":"agentId","type":"uint256","internalType":"uint256"},{"name":"client","type":"address","internalType":"address"},{"name":"feedbackIndex","type":"uint64","internalType":"uint64"}],"outputs":[{"name":"","type":"tuple","internalType":"struct AgentReputationRegistry.Feedback","components":[{"name":"client","type":"address","internalType":"address"},{"name":"value","type":"int128","internalType":"int128"},{"name":"decimals","type":"uint8","internalType":"uint8"},{"name":"tag1","type":"string","internalType":"string"},{"name":"tag2","type":"string","internalType":"string"},{"name":"feedbackURI","type":"string","internalType":"string"},{"name":"timestamp","type":"uint64","internalType":"uint64"},{"name":"revoked","type":"bool","internalType":"bool"}]}],"stateMutability":"view"},{"type":"function","name":"getFeedbackByTag","inputs":[{"name":"agentId","type":"uint256","internalType":"uint256"},{"name":"clients","type":"address[]","internalType":"address[]"},{"name":"tag","type":"string","internalType":"string"}],"outputs":[{"name":"","type":"tuple[]","internalType":"struct AgentReputationRegistry.Feedback[]","components":[{"name":"client","type":"address","internalType":"address"},{"name":"value","type":"int128","internalType":"int128"},{"name":"decimals","type":"uint8","internalType":"uint8"},{"name":"tag1","type":"string","internalType":"string"},{"name":"tag2","type":"string","internalType":"string"},{"name":"feedbackURI","type":"string","internalType":"string"},{"name":"timestamp","type":"uint64","internalType":"uint64"},{"name":"revoked","type":"bool","internalType":"bool"}]}],"stateMutability":"view"},{"type":"function","name":"getFeedbackCount","inputs":[{"name":"agentId","type":"uint256","internalType":"uint256"},{"name":"client","type":"address","internalType":"address"}],"outputs":[{"name":"","type":"uint64","internalType":"uint64"}],"stateMutability":"view"},{"type":"function","name":"getSummary","inputs":[{"name":"agentId","type":"uint256","internalType":"uint256"},{"name":"clients","type":"address[]","internalType":"address[]"}],"outputs":[{"name":"totalValue","type":"int256","internalType":"int256"},{"name":"count","type":"uint256","internalType":"uint256"},{"name":"averageValue","type":"int256","internalType":"int256"}],"stateMutability":"view"},{"type":"function","name":"giveFeedback","inputs":[{"name":"agentId","type":"uint256","internalType":"uint256"},{"name":"value","type":"int128","internalType":"int128"},{"name":"decimals","type":"uint8","internalType":"uint8"},{"name":"tag1","type":"string","internalType":"string"},{"name":"tag2","type":"string","internalType":"string"},{"name":"feedbackURI","type":"string","internalType":"string"}],"outputs":[{"name":"","type":"uint64","internalType":"uint64"}],"stateMutability":"nonpayable"},{"type":"function","name":"revokeFeedback","inputs":[{"name":"agentId","type":"uint256","internalType":"uint256"},{"name":"feedbackIndex","type":"uint64","internalType":"uint64"}],"outputs":[],"stateMutability":"nonpayable"},{"type":"event","name":"FeedbackRevoked","inputs":[{"name":"agentId","type":"uint256","indexed":true,"internalType":"uint256"},{"name":"client","type":"address","indexed":true,"internalType":"address"},{"name":"feedbackIndex","type":"uint64","indexed":true,"internalType":"uint64"}],"anonymous":false},{"type":"event","name":"NewFeedback","inputs":[{"name":"agentId","type":"uint256","indexed":true,"internalType":"uint256"},{"name":"client","type":"address","indexed":true,"internalType":"address"},{"name":"feedbackIndex","type":"uint64","indexed":true,"internalType":"uint64"},{"name":"value","type":"int128","indexed":false,"internalType":"int128"},{"name":"decimals","type":"uint8","indexed":false,"internalType":"uint8"},{"name":"tag1","type":"string","indexed":false,"internalType":"string"},{"name":"tag2","type":"string","indexed":false,"internalType":"string"},{"name":"feedbackURI","type":"string","indexed":false,"internalType":"string"}],"anonymous":false}],"bytecode":{"object":"0x608060405234801561000f575f80fd5b50612a5e8061001d5f395ff3fe608060405234801561000f575f80fd5b506004361061007b575f3560e01c80634ab3ca99116100595780634ab3ca991461010f5780638a997f651461012b5780638ee8febc1461015b578063a3a6ba381461018d5761007b565b80632a72bd741461007f5780633b34502e146100af57806342ed5109146100df575b5f80fd5b610099600480360381019061009491906119e7565b6101bd565b6040516100a69190611ce0565b60405180910390f35b6100c960048036038101906100c49190611d54565b610837565b6040516100d69190611e40565b60405180910390f35b6100f960048036038101906100f49190611e59565b610b90565b6040516101069190611e40565b60405180910390f35b61012960048036038101906101249190611ec1565b610bf9565b005b61014560048036038101906101409190611e59565b610dbd565b6040516101529190611ce0565b60405180910390f35b61017560048036038101906101709190611eff565b6111e5565b60405161018493929190611f80565b60405180910390f35b6101a760048036038101906101a29190611fb5565b6113cd565b6040516101b491906120c0565b60405180910390f35b60605f805b845181101561036f575f8582815181106101df576101de6120e0565b5b602002602001015190505f60015f8981526020019081526020015f205f8373ffffffffffffffffffffffffffffffffffffffff1673ffffffffffffffffffffffffffffffffffffffff1681526020019081526020015f205f9054906101000a900467ffffffffffffffff1690505f5b8167ffffffffffffffff168167ffffffffffffffff16101561035f575f805f8b81526020019081526020015f205f8573ffffffffffffffffffffffffffffffffffffffff1673ffffffffffffffffffffffffffffffffffffffff1681526020019081526020015f205f8367ffffffffffffffff1667ffffffffffffffff1681526020019081526020015f2090508060050160089054906101000a900460ff166103515787805190602001208160020160405161030a9190612206565b6040518091039020148061033c57508780519060200120816003016040516103329190612206565b6040518091039020145b1561035057858061034c90612249565b9650505b5b50808060010191505061024e565b50505080806001019150506101c2565b505f8167ffffffffffffffff81111561038b5761038a6117a1565b5b6040519080825280602002602001820160405280156103c457816020015b6103b16116e1565b8152602001906001900390816103a95790505b5090505f805b8651811015610829575f8782815181106103e7576103e66120e0565b5b602002602001015190505f60015f8b81526020019081526020015f205f8373ffffffffffffffffffffffffffffffffffffffff1673ffffffffffffffffffffffffffffffffffffffff1681526020019081526020015f205f9054906101000a900467ffffffffffffffff1690505f5b8167ffffffffffffffff168167ffffffffffffffff161015610819575f805f8d81526020019081526020015f205f8573ffffffffffffffffffffffffffffffffffffffff1673ffffffffffffffffffffffffffffffffffffffff1681526020019081526020015f205f8367ffffffffffffffff1667ffffffffffffffff1681526020019081526020015f2090508060050160089054906101000a900460ff1661080b578980519060200120816002016040516105129190612206565b60405180910390201480610544575089805190602001208160030160405161053a9190612206565b6040518091039020145b1561080a5780604051806101000160405290815f82015f9054906101000a900473ffffffffffffffffffffffffffffffffffffffff1673ffffffffffffffffffffffffffffffffffffffff1673ffffffffffffffffffffffffffffffffffffffff168152602001600182015f9054906101000a9004600f0b600f0b600f0b81526020016001820160109054906101000a900460ff1660ff1660ff1681526020016002820180546105f39061213a565b80601f016020809104026020016040519081016040528092919081815260200182805461061f9061213a565b801561066a5780601f106106415761010080835404028352916020019161066a565b820191905f5260205f20905b81548152906001019060200180831161064d57829003601f168201915b505050505081526020016003820180546106839061213a565b80601f01602080910402602001604051908101604052809291908181526020018280546106af9061213a565b80156106fa5780601f106106d1576101008083540402835291602001916106fa565b820191905f5260205f20905b8154815290600101906020018083116106dd57829003601f168201915b505050505081526020016004820180546107139061213a565b80601f016020809104026020016040519081016040528092919081815260200182805461073f9061213a565b801561078a5780601f106107615761010080835404028352916020019161078a565b820191905f5260205f20905b81548152906001019060200180831161076d57829003601f168201915b50505050508152602001600582015f9054906101000a900467ffffffffffffffff1667ffffffffffffffff1667ffffffffffffffff1681526020016005820160089054906101000a900460ff1615151515815250508787806107eb90612249565b9850815181106107fe576107fd6120e0565b5b60200260200101819052505b5b508080600101915050610456565b50505080806001019150506103ca565b508193505050509392505050565b5f60128560ff16111561087f576040517f08c379a0000000000000000000000000000000000000000000000000000000008152600401610876906122ea565b60405180910390fd5b5f60015f8981526020019081526020015f205f3373ffffffffffffffffffffffffffffffffffffffff1673ffffffffffffffffffffffffffffffffffffffff1681526020019081526020015f205f81819054906101000a900467ffffffffffffffff16809291906108ef90612308565b91906101000a81548167ffffffffffffffff021916908367ffffffffffffffff16021790555090506040518061010001604052803373ffffffffffffffffffffffffffffffffffffffff16815260200188600f0b81526020018760ff1681526020018681526020018581526020018481526020014267ffffffffffffffff1681526020015f15158152505f808a81526020019081526020015f205f3373ffffffffffffffffffffffffffffffffffffffff1673ffffffffffffffffffffffffffffffffffffffff1681526020019081526020015f205f8367ffffffffffffffff1667ffffffffffffffff1681526020019081526020015f205f820151815f015f6101000a81548173ffffffffffffffffffffffffffffffffffffffff021916908373ffffffffffffffffffffffffffffffffffffffff1602179055506020820151816001015f6101000a8154816fffffffffffffffffffffffffffffffff0219169083600f0b6fffffffffffffffffffffffffffffffff16021790555060408201518160010160106101000a81548160ff021916908360ff1602179055506060820151816002019081610aa291906124d4565b506080820151816003019081610ab891906124d4565b5060a0820151816004019081610ace91906124d4565b5060c0820151816005015f6101000a81548167ffffffffffffffff021916908367ffffffffffffffff16021790555060e08201518160050160086101000a81548160ff0219169083151502179055509050508067ffffffffffffffff163373ffffffffffffffffffffffffffffffffffffffff16897f7ee2ba9005c72d0845e3f3fdbdcd66ab93e6dfb379db2ed17259a1f6a7f23def8a8a8a8a8a604051610b7a9594939291906125f9565b60405180910390a4809150509695505050505050565b5f60015f8481526020019081526020015f205f8373ffffffffffffffffffffffffffffffffffffffff1673ffffffffffffffffffffffffffffffffffffffff1681526020019081526020015f205f9054906101000a900467ffffffffffffffff16905092915050565b5f805f8481526020019081526020015f205f3373ffffffffffffffffffffffffffffffffffffffff1673ffffffffffffffffffffffffffffffffffffffff1681526020019081526020015f205f8367ffffffffffffffff1667ffffffffffffffff1681526020019081526020015f2090503373ffffffffffffffffffffffffffffffffffffffff16815f015f9054906101000a900473ffffffffffffffffffffffffffffffffffffffff1673ffffffffffffffffffffffffffffffffffffffff1614610cfa576040517f08c379a0000000000000000000000000000000000000000000000000000000008152600401610cf1906126a9565b60405180910390fd5b8060050160089054906101000a900460ff1615610d4c576040517f08c379a0000000000000000000000000000000000000000000000000000000008152600401610d4390612711565b60405180910390fd5b60018160050160086101000a81548160ff0219169083151502179055508167ffffffffffffffff163373ffffffffffffffffffffffffffffffffffffffff16847f25156fd3288212246d8b008d5921fde376c71ed14ac2e072a506eb06fde6d09d60405160405180910390a4505050565b60605f60015f8581526020019081526020015f205f8473ffffffffffffffffffffffffffffffffffffffff1673ffffffffffffffffffffffffffffffffffffffff1681526020019081526020015f205f9054906101000a900467ffffffffffffffff1690505f8167ffffffffffffffff1667ffffffffffffffff811115610e4757610e466117a1565b5b604051908082528060200260200182016040528015610e8057816020015b610e6d6116e1565b815260200190600190039081610e655790505b5090505f5b8267ffffffffffffffff168167ffffffffffffffff1610156111d9575f808781526020019081526020015f205f8673ffffffffffffffffffffffffffffffffffffffff1673ffffffffffffffffffffffffffffffffffffffff1681526020019081526020015f205f8267ffffffffffffffff1667ffffffffffffffff1681526020019081526020015f20604051806101000160405290815f82015f9054906101000a900473ffffffffffffffffffffffffffffffffffffffff1673ffffffffffffffffffffffffffffffffffffffff1673ffffffffffffffffffffffffffffffffffffffff168152602001600182015f9054906101000a9004600f0b600f0b600f0b81526020016001820160109054906101000a900460ff1660ff1660ff168152602001600282018054610fb89061213a565b80601f0160208091040260200160405190810160405280929190818152602001828054610fe49061213a565b801561102f5780601f106110065761010080835404028352916020019161102f565b820191905f5260205f20905b81548152906001019060200180831161101257829003601f168201915b505050505081526020016003820180546110489061213a565b80601f01602080910402602001604051908101604052809291908181526020018280546110749061213a565b80156110bf5780601f10611096576101008083540402835291602001916110bf565b820191905f5260205f20905b8154815290600101906020018083116110a257829003601f168201915b505050505081526020016004820180546110d89061213a565b80601f01602080910402602001604051908101604052809291908181526020018280546111049061213a565b801561114f5780601f106111265761010080835404028352916020019161114f565b820191905f5260205f20905b81548152906001019060200180831161113257829003601f168201915b50505050508152602001600582015f9054906101000a900467ffffffffffffffff1667ffffffffffffffff1667ffffffffffffffff1681526020016005820160089054906101000a900460ff161515151581525050828267ffffffffffffffff16815181106111c1576111c06120e0565b5b60200260200101819052508080600101915050610e85565b50809250505092915050565b5f805f8092505f91505f5b84518110156113a6575f85828151811061120d5761120c6120e0565b5b602002602001015190505f60015f8981526020019081526020015f205f8373ffffffffffffffffffffffffffffffffffffffff1673ffffffffffffffffffffffffffffffffffffffff1681526020019081526020015f205f9054906101000a900467ffffffffffffffff1690505f5b8167ffffffffffffffff168167ffffffffffffffff161015611396575f805f8b81526020019081526020015f205f8573ffffffffffffffffffffffffffffffffffffffff1673ffffffffffffffffffffffffffffffffffffffff1681526020019081526020015f205f8367ffffffffffffffff1667ffffffffffffffff1681526020019081526020015f2090508060050160089054906101000a900460ff16611388575f8160010160109054906101000a900460ff16601261133e919061272f565b600a61134a9190612892565b826001015f9054906101000a9004600f0b600f0b61136891906128dc565b905080896113769190612952565b9850878061138390612249565b985050505b50808060010191505061127c565b50505080806001019150506111f0565b505f8211156113c25781836113bb91906129c0565b90506113c6565b5f90505b9250925092565b6113d56116e1565b5f808581526020019081526020015f205f8473ffffffffffffffffffffffffffffffffffffffff1673ffffffffffffffffffffffffffffffffffffffff1681526020019081526020015f205f8367ffffffffffffffff1667ffffffffffffffff1681526020019081526020015f20604051806101000160405290815f82015f9054906101000a900473ffffffffffffffffffffffffffffffffffffffff1673ffffffffffffffffffffffffffffffffffffffff1673ffffffffffffffffffffffffffffffffffffffff168152602001600182015f9054906101000a9004600f0b600f0b600f0b81526020016001820160109054906101000a900460ff1660ff1660ff1681526020016002820180546114ec9061213a565b80601f01602080910402602001604051908101604052809291908181526020018280546115189061213a565b80156115635780601f1061153a57610100808354040283529160200191611563565b820191905f5260205f20905b81548152906001019060200180831161154657829003601f168201915b5050505050815260200160038201805461157c9061213a565b80601f01602080910402602001604051908101604052809291908181526020018280546115a89061213a565b80156115f35780601f106115ca576101008083540402835291602001916115f3565b820191905f5260205f20905b8154815290600101906020018083116115d657829003601f168201915b5050505050815260200160048201805461160c9061213a565b80601f01602080910402602001604051908101604052809291908181526020018280546116389061213a565b80156116835780601f1061165a57610100808354040283529160200191611683565b820191905f5260205f20905b81548152906001019060200180831161166657829003601f168201915b50505050508152602001600582015f9054906101000a900467ffffffffffffffff1667ffffffffffffffff1667ffffffffffffffff1681526020016005820160089054906101000a900460ff16151515158152505090509392505050565b6040518061010001604052805f73ffffffffffffffffffffffffffffffffffffffff1681526020015f600f0b81526020015f60ff1681526020016060815260200160608152602001606081526020015f67ffffffffffffffff1681526020015f151581525090565b5f604051905090565b5f80fd5b5f80fd5b5f819050919050565b61176c8161175a565b8114611776575f80fd5b50565b5f8135905061178781611763565b92915050565b5f80fd5b5f601f19601f8301169050919050565b7f4e487b71000000000000000000000000000000000000000000000000000000005f52604160045260245ffd5b6117d782611791565b810181811067ffffffffffffffff821117156117f6576117f56117a1565b5b80604052505050565b5f611808611749565b905061181482826117ce565b919050565b5f67ffffffffffffffff821115611833576118326117a1565b5b602082029050602081019050919050565b5f80fd5b5f73ffffffffffffffffffffffffffffffffffffffff82169050919050565b5f61187182611848565b9050919050565b61188181611867565b811461188b575f80fd5b50565b5f8135905061189c81611878565b92915050565b5f6118b46118af84611819565b6117ff565b905080838252602082019050602084028301858111156118d7576118d6611844565b5b835b8181101561190057806118ec888261188e565b8452602084019350506020810190506118d9565b5050509392505050565b5f82601f83011261191e5761191d61178d565b5b813561192e8482602086016118a2565b91505092915050565b5f80fd5b5f67ffffffffffffffff821115611955576119546117a1565b5b61195e82611791565b9050602081019050919050565b828183375f83830152505050565b5f61198b6119868461193b565b6117ff565b9050828152602081018484840111156119a7576119a6611937565b5b6119b284828561196b565b509392505050565b5f82601f8301126119ce576119cd61178d565b5b81356119de848260208601611979565b91505092915050565b5f805f606084860312156119fe576119fd611752565b5b5f611a0b86828701611779565b935050602084013567ffffffffffffffff811115611a2c57611a2b611756565b5b611a388682870161190a565b925050604084013567ffffffffffffffff811115611a5957611a58611756565b5b611a65868287016119ba565b9150509250925092565b5f81519050919050565b5f82825260208201905092915050565b5f819050602082019050919050565b611aa181611867565b82525050565b5f81600f0b9050919050565b611abc81611aa7565b82525050565b5f60ff82169050919050565b611ad781611ac2565b82525050565b5f81519050919050565b5f82825260208201905092915050565b5f5b83811015611b14578082015181840152602081019050611af9565b5f8484015250505050565b5f611b2982611add565b611b338185611ae7565b9350611b43818560208601611af7565b611b4c81611791565b840191505092915050565b5f67ffffffffffffffff82169050919050565b611b7381611b57565b82525050565b5f8115159050919050565b611b8d81611b79565b82525050565b5f61010083015f830151611ba95f860182611a98565b506020830151611bbc6020860182611ab3565b506040830151611bcf6040860182611ace565b5060608301518482036060860152611be78282611b1f565b91505060808301518482036080860152611c018282611b1f565b91505060a083015184820360a0860152611c1b8282611b1f565b91505060c0830151611c3060c0860182611b6a565b5060e0830151611c4360e0860182611b84565b508091505092915050565b5f611c598383611b93565b905092915050565b5f602082019050919050565b5f611c7782611a6f565b611c818185611a79565b935083602082028501611c9385611a89565b805f5b85811015611cce5784840389528151611caf8582611c4e565b9450611cba83611c61565b925060208a01995050600181019050611c96565b50829750879550505050505092915050565b5f6020820190508181035f830152611cf88184611c6d565b905092915050565b611d0981611aa7565b8114611d13575f80fd5b50565b5f81359050611d2481611d00565b92915050565b611d3381611ac2565b8114611d3d575f80fd5b50565b5f81359050611d4e81611d2a565b92915050565b5f805f805f8060c08789031215611d6e57611d6d611752565b5b5f611d7b89828a01611779565b9650506020611d8c89828a01611d16565b9550506040611d9d89828a01611d40565b945050606087013567ffffffffffffffff811115611dbe57611dbd611756565b5b611dca89828a016119ba565b935050608087013567ffffffffffffffff811115611deb57611dea611756565b5b611df789828a016119ba565b92505060a087013567ffffffffffffffff811115611e1857611e17611756565b5b611e2489828a016119ba565b9150509295509295509295565b611e3a81611b57565b82525050565b5f602082019050611e535f830184611e31565b92915050565b5f8060408385031215611e6f57611e6e611752565b5b5f611e7c85828601611779565b9250506020611e8d8582860161188e565b9150509250929050565b611ea081611b57565b8114611eaa575f80fd5b50565b5f81359050611ebb81611e97565b92915050565b5f8060408385031215611ed757611ed6611752565b5b5f611ee485828601611779565b9250506020611ef585828601611ead565b9150509250929050565b5f8060408385031215611f1557611f14611752565b5b5f611f2285828601611779565b925050602083013567ffffffffffffffff811115611f4357611f42611756565b5b611f4f8582860161190a565b9150509250929050565b5f819050919050565b611f6b81611f59565b82525050565b611f7a8161175a565b82525050565b5f606082019050611f935f830186611f62565b611fa06020830185611f71565b611fad6040830184611f62565b949350505050565b5f805f60608486031215611fcc57611fcb611752565b5b5f611fd986828701611779565b9350506020611fea8682870161188e565b9250506040611ffb86828701611ead565b9150509250925092565b5f61010083015f83015161201b5f860182611a98565b50602083015161202e6020860182611ab3565b5060408301516120416040860182611ace565b50606083015184820360608601526120598282611b1f565b915050608083015184820360808601526120738282611b1f565b91505060a083015184820360a086015261208d8282611b1f565b91505060c08301516120a260c0860182611b6a565b5060e08301516120b560e0860182611b84565b508091505092915050565b5f6020820190508181035f8301526120d88184612005565b905092915050565b7f4e487b71000000000000000000000000000000000000000000000000000000005f52603260045260245ffd5b7f4e487b71000000000000000000000000000000000000000000000000000000005f52602260045260245ffd5b5f600282049050600182168061215157607f821691505b6020821081036121645761216361210d565b5b50919050565b5f81905092915050565b5f819050815f5260205f209050919050565b5f81546121928161213a565b61219c818661216a565b9450600182165f81146121b657600181146121cb576121fd565b60ff19831686528115158202860193506121fd565b6121d485612174565b5f5b838110156121f5578154818901526001820191506020810190506121d6565b838801955050505b50505092915050565b5f6122118284612186565b915081905092915050565b7f4e487b71000000000000000000000000000000000000000000000000000000005f52601160045260245ffd5b5f6122538261175a565b91507fffffffffffffffffffffffffffffffffffffffffffffffffffffffffffffffff82036122855761228461221c565b5b600182019050919050565b5f82825260208201905092915050565b7f446563696d616c7320746f6f20686967680000000000000000000000000000005f82015250565b5f6122d4601183612290565b91506122df826122a0565b602082019050919050565b5f6020820190508181035f830152612301816122c8565b9050919050565b5f61231282611b57565b915067ffffffffffffffff820361232c5761232b61221c565b5b600182019050919050565b5f819050815f5260205f209050919050565b5f6020601f8301049050919050565b5f82821b905092915050565b5f600883026123937fffffffffffffffffffffffffffffffffffffffffffffffffffffffffffffffff82612358565b61239d8683612358565b95508019841693508086168417925050509392505050565b5f819050919050565b5f6123d86123d36123ce8461175a565b6123b5565b61175a565b9050919050565b5f819050919050565b6123f1836123be565b6124056123fd826123df565b848454612364565b825550505050565b5f90565b61241961240d565b6124248184846123e8565b505050565b5b818110156124475761243c5f82612411565b60018101905061242a565b5050565b601f82111561248c5761245d81612337565b61246684612349565b81016020851015612475578190505b61248961248185612349565b830182612429565b50505b505050565b5f82821c905092915050565b5f6124ac5f1984600802612491565b1980831691505092915050565b5f6124c4838361249d565b9150826002028217905092915050565b6124dd82611add565b67ffffffffffffffff8111156124f6576124f56117a1565b5b612500825461213a565b61250b82828561244b565b5f60209050601f83116001811461253c575f841561252a578287015190505b61253485826124b9565b86555061259b565b601f19841661254a86612337565b5f5b828110156125715784890151825560018201915060208501945060208101905061254c565b8683101561258e578489015161258a601f89168261249d565b8355505b6001600288020188555050505b505050505050565b6125ac81611aa7565b82525050565b6125bb81611ac2565b82525050565b5f6125cb82611add565b6125d58185612290565b93506125e5818560208601611af7565b6125ee81611791565b840191505092915050565b5f60a08201905061260c5f8301886125a3565b61261960208301876125b2565b818103604083015261262b81866125c1565b9050818103606083015261263f81856125c1565b9050818103608083015261265381846125c1565b90509695505050505050565b7f4e6f7420666565646261636b206f776e657200000000000000000000000000005f82015250565b5f612693601283612290565b915061269e8261265f565b602082019050919050565b5f6020820190508181035f8301526126c081612687565b9050919050565b7f416c7265616479207265766f6b656400000000000000000000000000000000005f82015250565b5f6126fb600f83612290565b9150612706826126c7565b602082019050919050565b5f6020820190508181035f830152612728816126ef565b9050919050565b5f61273982611ac2565b915061274483611ac2565b9250828203905060ff81111561275d5761275c61221c565b5b92915050565b5f8160011c9050919050565b5f808291508390505b60018511156127b8578086048111156127945761279361221c565b5b60018516156127a35780820291505b80810290506127b185612763565b9450612778565b94509492505050565b5f826127d0576001905061288b565b816127dd575f905061288b565b81600181146127f357600281146127fd5761282c565b600191505061288b565b60ff84111561280f5761280e61221c565b5b8360020a9150848211156128265761282561221c565b5b5061288b565b5060208310610133831016604e8410600b84101617156128615782820a90508381111561285c5761285b61221c565b5b61288b565b61286e848484600161276f565b925090508184048111156128855761288461221c565b5b81810290505b9392505050565b5f61289c8261175a565b91506128a783611ac2565b92506128d47fffffffffffffffffffffffffffffffffffffffffffffffffffffffffffffffff84846127c1565b905092915050565b5f6128e682611f59565b91506128f183611f59565b92508282026128ff81611f59565b91507f800000000000000000000000000000000000000000000000000000000000000084145f841216156129365761293561221c565b5b828205841483151761294b5761294a61221c565b5b5092915050565b5f61295c82611f59565b915061296783611f59565b92508282019050828112155f8312168382125f84121516171561298d5761298c61221c565b5b92915050565b7f4e487b71000000000000000000000000000000000000000000000000000000005f52601260045260245ffd5b5f6129ca82611f59565b91506129d583611f59565b9250826129e5576129e4612993565b5b60015f0383147f800000000000000000000000000000000000000000000000000000000000000083141615612a1d57612a1c61221c565b5b82820590509291505056fea2646970667358221220963644e2863a5529174cd0554ae9578be51142901a8981ca11daef7e9e3aece264736f6c63430008180033","linkReferences":{}},"methodIdentifiers":{"getClientFeedback(uint256,address)":"8a997f65","getFeedback(uint256,address,uint64)":"a3a6ba38","getFeedbackByTag(uint256,address[],string)":"2a72bd74","getFeedbackCount(uint256,address)":"42ed5109","getSummary(uint256,address[])":"8ee8febc","giveFeedback(uint256,int128,uint8,string,string,string)":"3b34502e","revokeFeedback(uint256,uint64)":"4ab3ca99"},"id":44}