{
  "_format": "hh-sol-artifact-1",
  "contractName": "AgentIdentityRegistry",
  "sourceName": "contracts/AgentIdentityRegistry.sol",
  "abi": [
    {
      "inputs": [],
      "stateMutability": "nonpayable",
      "type": "constructor"
    },
    {
      "inputs": [
        {
          "internalType": "address",
          "name": "owner",
          "type": "address"
        }
      ],
      "name": "OwnableInvalidOwner",
      "type": "error"
    },
    {
      "inputs": [
        {
          "internalType": "address",
          "name": "account",
          "type": "address"
        }
      ],
      "name": "OwnableUnauthorizedAccount",
      "type": "error"
    },
    {
      "anonymous": false,
      "inputs": [
        {
          "indexed": true,
          "internalType": "bytes32",
          "name": "agentId",
          "type": "bytes32"
        }
      ],
      "name": "AgentDeactivated",
      "type": "event"
    },
    {
      "anonymous": false,
      "inputs": [
        {
          "indexed": true,
          "internalType": "bytes32",
          "name": "agentId",
          "type": "bytes32"
        },
        {
          "indexed": true,
          "internalType": "address",
          "name": "owner",
          "type": "address"
        },
        {
          "indexed": false,
          "internalType": "string",
          "name": "metadataURI",
          "type": "string"
        },
        {
          "indexed": false,
          "internalType": "string",
          "name": "strategyArchetype",
          "type": "string"
        }
      ],
      "name": "AgentRegistered",
      "type": "event"
    },
    {
      "anonymous": false,
      "inputs": [
        {
          "indexed": true,
          "internalType": "bytes32",
          "name": "agentId",
          "type": "bytes32"
        },
        {
          "indexed": false,
          "internalType": "string",
          "name": "metadataURI",
          "type": "string"
        }
      ],
      "name": "AgentUpdated",
      "type": "event"
    },
    {
      "anonymous": false,
      "inputs": [
        {
          "indexed": true,
          "internalType": "address",
          "name": "previousOwner",
          "type": "address"
        },
        {
          "indexed": true,
          "internalType": "address",
          "name": "newOwner",
          "type": "address"
        }
      ],
      "name": "OwnershipTransferred",
      "type": "event"
    },
    {
      "inputs": [
        {
          "internalType": "bytes32",
          "name": "",
          "type": "bytes32"
        }
      ],
      "name": "agents",
      "outputs": [
        {
          "internalType": "address",
          "name": "owner",
          "type": "address"
        },
        {
          "internalType": "string",
          "name": "metadataURI",
          "type": "string"
        },
        {
          "internalType": "string",
          "name": "strategyArchetype",
          "type": "string"
        },
        {
          "internalType": "uint256",
          "name": "registeredAt",
          "type": "uint256"
        },
        {
          "internalType": "bool",
          "name": "isActive",
          "type": "bool"
        }
      ],
      "stateMutability": "view",
      "type": "function"
    },
    {
      "inputs": [
        {
          "internalType": "bytes32",
          "name": "agentId",
          "type": "bytes32"
        }
      ],
      "name": "deactivateAgent",
      "outputs": [],
      "stateMutability": "nonpayable",
      "type": "function"
    },
    {
      "inputs": [
        {
          "internalType": "address",
          "name": "owner",
          "type": "address"
        }
      ],
      "name": "getOwnerAgents",
      "outputs": [
        {
          "internalType": "bytes32[]",
          "name": "",
          "type": "bytes32[]"
        }
      ],
      "stateMutability": "view",
      "type": "function"
    },
    {
      "inputs": [],
      "name": "owner",
      "outputs": [
        {
          "internalType": "address",
          "name": "",
          "type": "address"
        }
      ],
      "stateMutability": "view",
      "type": "function"
    },
    {
      "inputs": [
        {
          "internalType": "address",
          "name": "",
          "type": "address"
        },
        {
          "internalType": "uint256",
          "name": "",
          "type": "uint256"
        }
      ],
      "name": "ownerAgents",
      "outputs": [
        {
          "internalType": "bytes32",
          "name": "",
          "type": "bytes32"
        }
      ],
      "stateMutability": "view",
      "type": "function"
    },
    {
      "inputs": [
        {
          "internalType": "bytes32",
          "name": "agentId",
          "type": "bytes32"
        },
        {
          "internalType": "string",
          "name": "metadataURI",
          "type": "string"
        },
        {
          "internalType": "string",
          "name": "strategyArchetype",
          "type": "string"
        }
      ],
      "name": "registerAgent",
      "outputs": [],
      "stateMutability": "nonpayable",
      "type": "function"
    },
    {
      "inputs": [],
      "name": "renounceOwnership",
      "outputs": [],
      "stateMutability": "nonpayable",
      "type": "function"
    },
    {
      "inputs": [
        {
          "internalType": "address",
          "name": "newOwner",
          "type": "address"
        }
      ],
      "name": "transferOwnership",
      "outputs": [],
      "stateMutability": "nonpayable",
      "type": "function"
    },
    {
      "inputs": [
        {
          "internalType": "bytes32",
          "name": "agentId",
          "type": "bytes32"
        },
        {
          "internalType": "string",
          "name": "newMetadataURI",
          "type": "string"
        }
      ],
      "name": "updateMetadata",
      "outputs": [],
      "stateMutability": "nonpayable",
      "type": "function"
    }
  ],
  "bytecode": "0x608060405234801561001057600080fd5b50338061003757604051631e4fbdf760e01b81526000600482015260240160405180910390fd5b61004081610046565b50610096565b600080546001600160a01b038381166001600160a01b0319831681178455604051919092169283917f8be0079c531659141344cd1fd0a4f28419497f9722a3daafe3b4186f6b6457e09190a35050565b610cde806100a56000396000f3fe608060405234801561001057600080fd5b50600436106100935760003560e01c8063715018a611610066578063715018a61461010e5780637585840a146101165780638da5cb5b14610136578063a375765e14610151578063f2fde38b1461016457600080fd5b8063292503a7146100985780632e20ee18146100ad57806359b5acf3146100da57806362febe4f146100ed575b600080fd5b6100ab6100a636600461090f565b610177565b005b6100c06100bb36600461097c565b610371565b6040516100d19594939291906109db565b60405180910390f35b6100ab6100e836600461097c565b6104bf565b6101006100fb366004610a47565b6105b1565b6040519081526020016100d1565b6100ab6105e2565b610129610124366004610a71565b6105f6565b6040516100d19190610a93565b6000546040516001600160a01b0390911681526020016100d1565b6100ab61015f366004610ad7565b610662565b6100ab610172366004610a71565b6107b1565b600083815260016020526040902060030154156101d25760405162461bcd60e51b81526020600482015260146024820152734167656e7420616c72656164792065786973747360601b60448201526064015b60405180910390fd5b600082511161021b5760405162461bcd60e51b815260206004820152601560248201527413595d1859185d1848155492481c995c5d5a5c9959605a1b60448201526064016101c9565b600081511161026c5760405162461bcd60e51b815260206004820152601b60248201527f537472617465677920617263686574797065207265717569726564000000000060448201526064016101c9565b6040805160a081018252338152602080820185815282840185905242606084015260016080840181905260008881529281905293909120825181546001600160a01b0319166001600160a01b03909116178155905191929091908201906102d39082610ba7565b50604082015160028201906102e89082610ba7565b50606082015160038201556080909101516004909101805460ff1916911515919091179055336000818152600260209081526040808320805460018101825590845291909220018590555184907fa303e3f17b5229a012ab3bf5a568f5badf23c0e5f853e714af4ae28b663544c9906103649086908690610c67565b60405180910390a3505050565b6001602081905260009182526040909120805491810180546001600160a01b039093169261039e90610b1e565b80601f01602080910402602001604051908101604052809291908181526020018280546103ca90610b1e565b80156104175780601f106103ec57610100808354040283529160200191610417565b820191906000526020600020905b8154815290600101906020018083116103fa57829003601f168201915b50505050509080600201805461042c90610b1e565b80601f016020809104026020016040519081016040528092919081815260200182805461045890610b1e565b80156104a55780601f1061047a576101008083540402835291602001916104a5565b820191906000526020600020905b81548152906001019060200180831161048857829003601f168201915b50505050600383015460049093015491929160ff16905085565b6000818152600160205260409020546001600160a01b031633146105175760405162461bcd60e51b815260206004820152600f60248201526e2737ba1030b3b2b73a1037bbb732b960891b60448201526064016101c9565b60008181526001602052604090206004015460ff1661056e5760405162461bcd60e51b8152602060048201526013602482015272105b1c9958591e4819195858dd1a5d985d1959606a1b60448201526064016101c9565b600081815260016020526040808220600401805460ff191690555182917f83fa9a5555770ebb043d9ef83dd2d496875b8a91e0b595e5ce06520ba75187ad91a250565b600260205281600052604060002081815481106105cd57600080fd5b90600052602060002001600091509150505481565b6105ea6107ef565b6105f4600061081c565b565b6001600160a01b03811660009081526002602090815260409182902080548351818402810184019094528084526060939283018282801561065657602002820191906000526020600020905b815481526020019060010190808311610642575b50505050509050919050565b6000828152600160205260409020546001600160a01b031633146106ba5760405162461bcd60e51b815260206004820152600f60248201526e2737ba1030b3b2b73a1037bbb732b960891b60448201526064016101c9565b60008281526001602052604090206004015460ff1661070f5760405162461bcd60e51b81526020600482015260116024820152701059d95b9d0819195858dd1a5d985d1959607a1b60448201526064016101c9565b60008151116107585760405162461bcd60e51b815260206004820152601560248201527413595d1859185d1848155492481c995c5d5a5c9959605a1b60448201526064016101c9565b6000828152600160208190526040909120016107748282610ba7565b50817f1f4703d97a7ba241088b5d647231164887793dc56fcab7fa8661dd86eea1112d826040516107a59190610c95565b60405180910390a25050565b6107b96107ef565b6001600160a01b0381166107e357604051631e4fbdf760e01b8152600060048201526024016101c9565b6107ec8161081c565b50565b6000546001600160a01b031633146105f45760405163118cdaa760e01b81523360048201526024016101c9565b600080546001600160a01b038381166001600160a01b0319831681178455604051919092169283917f8be0079c531659141344cd1fd0a4f28419497f9722a3daafe3b4186f6b6457e09190a35050565b634e487b7160e01b600052604160045260246000fd5b600082601f83011261089357600080fd5b813567ffffffffffffffff808211156108ae576108ae61086c565b604051601f8301601f19908116603f011681019082821181831017156108d6576108d661086c565b816040528381528660208588010111156108ef57600080fd5b836020870160208301376000602085830101528094505050505092915050565b60008060006060848603121561092457600080fd5b83359250602084013567ffffffffffffffff8082111561094357600080fd5b61094f87838801610882565b9350604086013591508082111561096557600080fd5b5061097286828701610882565b9150509250925092565b60006020828403121561098e57600080fd5b5035919050565b6000815180845260005b818110156109bb5760208185018101518683018201520161099f565b506000602082860101526020601f19601f83011685010191505092915050565b6001600160a01b038616815260a0602082018190526000906109ff90830187610995565b8281036040840152610a118187610995565b606084019590955250509015156080909101529392505050565b80356001600160a01b0381168114610a4257600080fd5b919050565b60008060408385031215610a5a57600080fd5b610a6383610a2b565b946020939093013593505050565b600060208284031215610a8357600080fd5b610a8c82610a2b565b9392505050565b6020808252825182820181905260009190848201906040850190845b81811015610acb57835183529284019291840191600101610aaf565b50909695505050505050565b60008060408385031215610aea57600080fd5b82359150602083013567ffffffffffffffff811115610b0857600080fd5b610b1485828601610882565b9150509250929050565b600181811c90821680610b3257607f821691505b602082108103610b5257634e487b7160e01b600052602260045260246000fd5b50919050565b601f821115610ba257600081815260208120601f850160051c81016020861015610b7f5750805b601f850160051c820191505b81811015610b9e57828155600101610b8b565b5050505b505050565b815167ffffffffffffffff811115610bc157610bc161086c565b610bd581610bcf8454610b1e565b84610b58565b602080601f831160018114610c0a5760008415610bf25750858301515b600019600386901b1c1916600185901b178555610b9e565b600085815260208120601f198616915b82811015610c3957888601518255948401946001909101908401610c1a565b5085821015610c575787850151600019600388901b60f8161c191681555b5050505050600190811b01905550565b604081526000610c7a6040830185610995565b8281036020840152610c8c8185610995565b95945050505050565b602081526000610a8c602083018461099556fea2646970667358221220f93f9b26d795b835a1aec585d74340866a10746a4907e2d8d400a077de822df464736f6c63430008140033",
  "linkReferences": {},
  "deployedLinkReferences": {}
}